:100000000C9438000C9455000C9455000C94550039
:100010000C9455000C9455000C9455000C9455000C
:100020000C9455000C9455000C9455000C945500FC
:100030000C9455000C9455000C9455000C945500EC
:100040000C9455000C9455000C9475030C945500B9
:100050000C94D7030C9455000C947E010C9455001D
:100060000C9455000C9455000C94B3030C9455005B
:1000700011241FBECFEFD0E1DEBFCDBF12E0A0E064
:10008000B1E0E4E0F4E102C005900D92A63FB107B3
:10009000D9F713E0A6EFB2E001C01D92A232B1077A
:1000A000E1F70E9464030C94000A0C940000982F5E
:1000B0001298662311F0119A01C0119882B18F70C5
:1000C00082B982B19295907F892B82B9139A81E08F
:1000D0008A95F1F7139808950F931F93182F062F01
:1000E00082958F700E945700812F8F70602F0E9421
:1000F00057001F910F910895129A91B19F7091B975
:10010000882311F0119A01C01198139A81E08A9501
:10011000F1F780B1139891B1906F91B912988295CF
:100120008F7008950F931F93182F0E947C00082F43
:100130000295007F812F0E947C00802B1F910F91E0
:10014000089580E00E94920087FDFBCF08950F93F1
:100150001F9381B18E6081B981B1806F81B980E4D4
:100160009CE90197F1F783E060E00E94570080E18D
:1001700097E20197F1F783E060E00E94570008EEF4
:1001800013E0C8010197F1F783E060E00E94570097
:10019000C8010197F1F782E060E00E9457000E94D9
:1001A000A10088E260E00E946C000E94A1008CE047
:1001B00060E00E946C000E94A10086E060E00E9466
:1001C0006C000E94A10081E060E00E946C000E942F
:1001D000A10082E060E00E946C000E94A1001F91DB
:1001E0000F9108950F931F93CF93DF93EC018B0131
:1001F00009C0F80181918F0161E00E946C000E94AA
:10020000A10021971C161D06A4F3DF91CF911F9129
:100210000F91089580E28093C000E1ECF0E010823D
:1002200086E08093C20083E38093C4001092C500EF
:100230008081806480838081806880830895E1EC80
:10024000F0E08081886080830895E1ECF0E08081B7
:10025000877F80830895E1ECF0E080818061808376
:100260000895E1ECF0E080818F7E80830895982FDF
:100270008091C00085FFFCCF9093C60008958091C7
:10028000C00087FFFCCF8091C60008959C01FB0150
:100290000AC090818091C00085FFFCCF3196909379
:1002A000C60021503040121613069CF3089524987E
:1002B00084B18A6284B985B18A6385B91CBC8CB566
:1002C0008CBD8CB58CBD8CB580618CBD8CB58CBD66
:1002D0008CB58CBD8CB582608CBD1DBC8DB58DBDC3
:1002E0008CB580648CBD08958EBD0DB407FEFDCF26
:1002F00008950DB407FEFDCF8EB508951F920F929D
:100300000FB60F9211240F900FBE0F901F901895EB
:1003100081E080936E0084E085BD80EC86BD089509
:100320008091FA02823009F45AC0833030F4882375
:1003300059F0813009F0B4C02BC0833009F479C082
:10034000843009F0ADC09EC080E185B985B993B114
:100350009F709093F602923051F0933018F49130E0
:10036000A9F405C0943049F0983081F40AC084E0C3
:100370008093FA029093F70208959093FA0283E033
:100380007EC084E08093FA028CE079C081E04EC0A8
:1003900080E285B985B983B18F708093F60282308F
:1003A00071F0833018F48130C1F405C0843061F0FD
:1003B000883099F40DC084E08093FA0260C084E034
:1003C0008093FA0285E05BC08093FA0286E057C012
:1003D00084E08093FA028DE052C082E027C080E47E
:1003E00085B985B983B18F708093F602823079F038
:1003F000833018F48130C9F405C0843069F0883046
:10040000A1F40EC084E08093FA0287E038C084E053
:100410008093FA0288E033C08093FA0289E02FC00B
:1004200084E08093FA028EE02AC083E08093FA028F
:10043000089580E885B985B983B18F708093F602FD
:10044000823079F0833018F4813039F505C084307A
:1004500071F0883011F50FC084E08093FA028AE0D1
:100460000EC084E08093FA021092F7020895809300
:10047000FA028BE004C084E08093FA028FE080935C
:10048000F702089580EF85B983B18F708093F602EB
:10049000882341F481E08093F8021092FA020895D3
:1004A0001092FA02089580911703813009F44EC02A
:1004B000813038F0823009F48EC0833009F0A1C059
:1004C000089581E060E00E946C0080E860E00E9496
:1004D0006C000E94A10084E190E060E071E00E9465
:1004E000F20080EC60E00E946C000E94A10084E1B8
:1004F00090E065E171E00E94F2000E94D6050E9442
:100500003D0684E960E00E946C000E94A10089E041
:1005100090E06BE871E00E94F20082E090E06AE215
:1005200071E00E94F20089E090E061E871E00E94D1
:10053000F20084E960E00E946C000E94A10084E166
:1005400090E06DE271E00E94F2003FC08091F902FC
:100550008F5F8093F9028E31C0F10E94D6050E9410
:100560003D0684ED60E00E946C000E94A10089E0DD
:1005700090E06BE871E00E94F20082E090E06AE2B5
:1005800071E00E94F20089E090E061E871E00E9471
:10059000F20084E960E00E946C000E94A1008FE0FC
:1005A00090E062E471E00E94F20080911B03805DA4
:1005B00061E00E946C000E94A10084E090E062E58E
:1005C00071E00E94F2001092F902809117038F5F90
:1005D00080931703089581E0809317038091F802B8
:1005E000882389F01092F8028091F7028C3059F438
:1005F00083E08093170380911A03816080931A032C
:100600000895109217030895CF93DF9310921A0361
:10061000109217031092FA02C0E0D0E0CE01805091
:1006200090400E94E209FE01E55FFC4F8083219625
:10063000CA30D10599F78AE090E00E94EA099093C8
:1006400019038093180310921C0310921B039093BC
:10065000160380931503DF91CF910895F8940E94BB
:10066000A70080EF84B915B80E940A010E941F01FB
:100670000E942B010E9406040E940907882319F199
:1006800081E060E00E946C0080E860E00E946C0005
:100690000E94A10084E190E060E071E00E94F2001D
:1006A00084E190E067E571E00E94F20084E190E06F
:1006B00065E171E00E94F20084E190E06CE671E097
:1006C0000E94F200FFCF089580E49CE90197F1F7C2
:1006D0000E942E030E94040381E080936E0084E058
:1006E00085BD80EC86BD7894FFCF1F920F920FB628
:1006F0000F9211242F933F934F935F936F937F93A8
:100700008F939F93AF93BF93EF93FF930E949001BA
:100710000E94530280911A0380FF02C00E94640865
:1007200080911A0381FF02C00E94080880911A0379
:1007300082FF02C00E94AC0780911A0383FF02C0AF
:100740000E945007FF91EF91BF91AF919F918F91C0
:100750007F916F915F914F913F912F910F900FBEBD
:100760000F901F9018951F920F920FB60F921124A1
:100770002F933F934F935F936F937F938F939F93A9
:10078000AF93BF93EF93FF930E946405FF91EF91A6
:10079000BF91AF919F918F917F916F915F914F9199
:1007A0003F912F910F900FBE0F901F9018951F92A1
:1007B0000F920FB60F9211241F932F933F934F93D5
:1007C0005F936F937F938F939F93AF93BF93EF93B9
:1007D000FF930E943F01182F61E00E946C000E946D
:1007E000A100812F0E943701FF91EF91BF91AF913E
:1007F0009F918F917F916F915F914F913F912F9139
:100800001F910F900FBE0F901F901895E8EBF0E02E
:100810001082ACEBB0E01C9288EF8093B90010928C
:10082000BD0081E2808382E08093BA0085EC8C93E6
:100830000895813039F0813018F0823061F406C0BB
:1008400084EA01C084E88093BC0005C084E98093F9
:10085000BC0080E008958091BC0087FFFCCF8091B0
:10086000B900887F08950F931F93F8019091BC0001
:100870009A7B9093BC0070E067707070660F771F72
:10088000582F5295507F562B90E074EA64E89F5F92
:100890009B3009F464C07093BC008091BC0087FF5A
:1008A000FCCF8091B900887F803129F0883399F39B
:1008B000883009F054C05093BB006093BC00809115
:1008C000BC0087FFFCCF8091B900887F8032F9F2AD
:1008D000883309F38831D1F54093BB006093BC00A5
:1008E0008091BC0087FFFCCF8091B900887F803366
:1008F00029F0883381F2883249F503C040E050E0A6
:100900001BC040E050E064E811C080818093BB00D0
:100910006093BC008091BC0087FFFCCF8091B90040
:10092000887F883299F431964F5F5F4FC901841BED
:10093000950B181619064CF384E98093BC008DE0E2
:100940008A95F1F785E48093BC000BC084E980931D
:10095000BC008DE08A95F1F785E48093BC004FEFF1
:100960005FEFCA011F910F9108950F931F93F80134
:100970009091BC009A7B9093BC0070E0677070709F
:10098000660F771F982F9295907F962B792F716025
:1009900050E0A4EA64E85F5F5B3009F48FC0A09385
:1009A000BC008091BC0087FFFCCF8091B900887F9C
:1009B000803129F0883399F3883009F07FC0909313
:1009C000BB006093BC008091BC0087FFFCCF80918E
:1009D000B900887F8032F9F2883309F3883109F051
:1009E00064C04093BB006093BC008091BC0087FF53
:1009F000FCCF8091B900887F803309F44AC08833E6
:100A000071F2883209F051C0A093BC008091BC0003
:100A100087FFFCCF8091B900887F803131F0883327
:100A200009F4BDCF883009F049C07093BB006093D2
:100A3000BC008091BC0087FFFCCF8091B900887F0B
:100A4000803429F0883429F1883379F5A8CF94ECE3
:100A500040E050E01AC02130310509F494E8909349
:100A6000BC008091BC0087FFFCCF8091B900887FDB
:100A7000803521F08835C9F420E030E08091BB005A
:100A800081934F5F5F4F21503040121613061CF3C5
:100A900002C040E050E084E98093BC008DE08A957C
:100AA000F1F785E48093BC000BC084E98093BC001F
:100AB0008DE08A95F1F785E48093BC004FEF5FEFFE
:100AC000CA011F910F9108958091B900887F8037E6
:100AD00081F0813730F4803661F0883609F065C0E6
:100AE00008C0803999F0803A29F1803809F05DC05A
:100AF0000DC01092FB021092210310921D03109260
:100B00001E0310921F03109220030EC08091FB025F
:100B10009091BB00E82FF0E0E35EFC4F90838F5F85
:100B20008093FB02843011F085EC01C085E880934E
:100B3000BC00089584E08093BC00E0911B03F09119
:100B40001C03AF014F5F5F4F50931C0340931B0387
:100B500060911503709116039B0121503040309332
:100B600016032093150380911D038130D9F48091E1
:100B70001E03882369F44F5F5F4F50931C0340931B
:100B80001B032150304030931603209315030AC0F5
:100B90008F3F41F4F0931C03E0931B037093160303
:100BA0006093150385EC8093BC0008950F931F9309
:100BB000DF93CF9300D00F92CDB7DEB78DE060E02A
:100BC00040E023E030E08E010F5F1F4F0E94B5042C
:100BD000039709F04AC08981282F2F70205D209348
:100BE000880190E08077907054E0959587955A95AC
:100BF000E1F7805D809387018A81282F2F70205D27
:100C00002093850190E08077907044E095958795DA
:100C10004A95E1F7805D809384019B81892F8F70D5
:100C2000805D80938201292F30E096FF13C0C901B7
:100C30008071907034E0959587953A95E1F7805DE5
:100C40008093810125FD02C081E601C080E7809389
:100C500089010BC02073307084E0359527958A9503
:100C6000E1F7822F805D809381010F900F900F90AC
:100C7000CF91DF911F910F9108950F931F93DF93F1
:100C8000CF9300D00F92CDB7DEB78DE060E044E0A7
:100C900023E030E08E010F5F1F4F0E94B5040397E1
:100CA00009F0AFC09B81892F8F70805D8093930185
:100CB00092959F70905D909392019981892F8F708A
:100CC000805D8093900192959F70905D90938F01CD
:100CD0008A8190E08F7190708630910509F458C038
:100CE00087309105ACF48330910509F43CC0843021
:100CF00091053CF48130910531F1029709F081C0F2
:100D00002AC084309105A1F1059709F07AC038C056
:100D10008930910509F454C08A30910544F4873034
:100D2000910509F43DC0089709F06BC041C08131BD
:100D3000910509F455C08231910509F459C04097D5
:100D400009F05FC045C085E480938B018EE68093F7
:100D50008C0185E654C086E480938B0185E6809300
:100D60008C0182E64CC08DE480938B0181E604C047
:100D700081E480938B0182E680938C0182E73FC0FF
:100D80008DE480938B0181E680938C0189E737C0E5
:100D90008AE480938B0185E780938C018EE62FC0D7
:100DA0008AE480938B0185E780938C018CE627C0D1
:100DB00081E480938B0187E680938C018FE61FC0CE
:100DC00083E580938B0185E680938C0180E717C0D3
:100DD0008FE480938B0183E680938C0184E70FC0BE
:100DE0008EE480938B018FE680938C0186E707C0A9
:100DF00084E480938B0189E680938C0183E6809361
:100E00008D010F900F900F90CF91DF911F910F9157
:100E10000895EF92FF920F931F93DF93CF93CDB777
:100E2000DEB728970FB6F894DEBF0FBECDBF8DE0BA
:100E300060E040E028E030E07E010894E11CF11C15
:100E400087010E94B5040897E1F4898187FD02C0FB
:100E500020E018C019821A8282E58B8386E08C8399
:100E600081E08D838E8380E18F8318868DE060E042
:100E700040E028E030E087010E94330420E008973A
:100E800009F021E0822F28960FB6F894DEBF0FBE3E
:100E9000CDBFCF91DF911F910F91FF90EF900895FB
:100EA0008091FC02882321F0813009F052C03AC0C1
:100EB00081E060E00E946C0080E860E00E946C00CD
:100EC0000E94A10081E190E065E971E00E94F200DA
:100ED00080EC60E00E946C000E94A1008DE090E038
:100EE00067EA71E00E94F20084E960E00E946C0011
:100EF0000E94A10080E190E065EB71E00E94F200A9
:100F000084ED60E00E946C000E94A10083E190E00B
:100F100066EC71E00E94F2008091FC028F5F80938A
:100F2000FC0208958091F8028823A9F01092F8023B
:100F30008091F702813078F0843010F08F3059F4CE
:100F400080911A03877F816080931A031092FC02BC
:100F500008951092FC0208958091FD02882321F0EB
:100F6000813009F052C03AC081E060E00E946C001C
:100F700080E860E00E946C000E94A1008FE090E099
:100F80006AED71E00E94F20080EC60E00E946C006B
:100F90000E94A10080E190E06AEE71E00E94F20000
:100FA00084E960E00E946C000E94A1008FE090E064
:100FB0006BEF71E00E94F20084ED60E00E946C0033
:100FC0000E94A10083E090E06BE072E00E94F200DA
:100FD0008091FD028F5F8093FD0208958091F80259
:100FE0008823A9F01092F8028091F702813078F0FE
:100FF000843010F08F3059F480911A038B7F816018
:1010000080931A031092FD0208951092FD02089534
:101010008091FE02882321F0813009F052C03AC04D
:1010200081E060E00E946C0080E860E00E946C005B
:101030000E94A10082E190E06FE072E00E94F20065
:1010400080EC60E00E946C000E94A10080E190E0D2
:1010500062E272E00E94F20084E960E00E946C00AB
:101060000E94A10083E090E063E372E00E94F2003E
:1010700084ED60E00E946C000E94A10083E090E09B
:101080006BE072E00E94F2008091FE028F5F80931D
:10109000FE0208958091F8028823A9F01092F802C8
:1010A0008091F702813078F0843010F08F3059F45D
:1010B00080911A038D7F816080931A031092FE0243
:1010C00008951092FE02089580910A03823009F477
:1010D0008CC0833030F4882359F0813009F06FC11F
:1010E00052C0833009F4FDC0843009F068C131C1B9
:1010F00081E060E00E946C0080E860E00E946C008B
:101100000E94A10083E190E067E372E00E94F20098
:1011100080EC60E00E946C000E94A10081E190E000
:101120006BE472E00E94F20084E960E00E946C00CF
:101130000E94A10083E190E06DE572E00E94F20060
:1011400084ED60E00E946C000E94A1008FE090E0BE
:1011500061E772E00E94F20089ED60E00E946C009D
:101160000E94A1008FE060E00E946C000E94A1003C
:1011700010920903EFEFF2E08FEF819393E0E930F3
:10118000F907D9F7E2C08091F802882309F419C160
:101190001092F8029091F7029A30A0F4809109031E
:1011A0008A3008F00EC1E82FF0E0E150FD4F908347
:1011B0008F5F809309038AE261E00E946C000E94C5
:1011C000A10008959B3039F48CE060E00E946C002F
:1011D0000E94A100BAC09F3009F0F3C08CE060E02B
:1011E0000E946C000E94A100E0C083E080930A038B
:1011F00070910903472F50E061E020E030E00CC01F
:10120000F901E150FD4FD901A55FBC4F90818C9150
:10121000981360E02F5F3F4F241735078CF3FA01D6
:10122000E55FFC4F20E030E0472F50E007C08081B1
:101230008F3F09F060E02F5F3F4F3196C901840F67
:10124000951F0A97A4F3662309F0BBC081E00E94B2
:101250006C0080E860E00E946C000E94A10083E1C5
:1012600090E061E872E00E94F20080EC60E00E9491
:101270006C000E94A10083E190E065E972E00E94A9
:10128000F20084E960E00E946C000E94A10083E10A
:1012900090E069EA72E00E94F20084ED60E00E9452
:1012A0006C000E94A1008FE090E061E772E00E9474
:1012B000F20089ED60E00E946C000E94A1008FE0C6
:1012C00060E00E946C000E94A10010920903EFEF01
:1012D000F2E08FEF819393E0E930F907D9F781E0ED
:1012E00058C081E060E00E946C0080E860E00E94ED
:1012F0006C000E94A10081E190E06BE472E00E942A
:10130000F20080EC60E00E946C000E94A10084E189
:1013100090E06DEB72E00E94F20084E960E00E94D0
:101320006C000E94A1008FE090E062ED72E00E94EC
:10133000F20084ED60E00E946C000E94A10082E156
:1013400090E062EE72E00E94F20080910A038F5FEB
:1013500020C08091F8028823A1F11092F8029091A8
:10136000F702923079F0933018F4913051F505C0BE
:10137000933091F09F3029F518C080911A038E7F29
:10138000826004C080911A038E7F846080931A0368
:1013900083E080930A03089580911A038E7F88600A
:1013A00080931A0390930A03089510921703809173
:1013B0001A038E7F80931A0310920A0308951092E5
:1013C0000A030895F999FECF92BD81BDF89A992735
:1013D00080B50895A8E1B0E042E050E00C94F20935
:1013E000DC01CB01FC01F999FECF06C0F2BDE1BDE5
:1013F000F89A319600B40D9241505040B8F70895D4
:04140000F894FFCF8E
:10140400504152515545414445524F204544494667
:101414004943494F002020202053414E544F444F0C
:101424004D494E474F202020200020200043757056
:101434006F73204C69627265733A3030302F3030EC
:1014440030004375706F73204C69627265733A3073
:1014540030002F303030004552524F523A204E6FF8
:1014640020657320706F7369626C6500636F6D75BE
:101474006E69636163696F6E20636F6E20525443BB
:101484000020203A20203A20202020202020202044
:10149400202F2020202020434F4E464947555241BB
:1014A40043494F4E455300312E20436F6E74726191
:1014B40073656E6100322E20526573657420466137
:1014C400627269636100332E204175746F636F6DBE
:1014D40070726F626163696F6E002020204645431D
:1014E4004841205920484F524100312E2043616D1C
:1014F4006269617220466563686100322E2043612F
:101504006D6269617220486F726100332E20002081
:101514004441544F53205041525155454144455242
:101524004F00312E204375706F7320546F74616CBB
:10153400657300322E2000494E475245534F2053C5
:10154400454755524F2041524541002020204144F7
:101554004D494E495354524143494F4E0020496E20
:10156400677265736520436F6E74726173656E6133
:101574000020202020205F5F5F5F5F5F5F5F5F5F11
:1015840000204552524F52202D20434F4E54524179
:1015940053454E41002020202020494E434F5252B3
:1015A40045435441202020200020496E74656E7408
:1015B400656C6F206465206E7565766F00312E2032
:1015C4004461746F732050617271756561646572F2
:1015D4006F00322E204665636861207920486F725F
:1015E4006100332E20436F6E6669677572616369AB
:0615F4006F6E657300003C
:00000001FF
