:100000000C9438000C9442000C9442000C94420072
:100010000C9442000C9442000C9442000C94420058
:100020000C9442000C9442000C9442000C94420048
:100030000C9442000C9442000C9442000C94420038
:100040000C9442000C9442000C9442000C94420028
:100050000C9442000C9442000C9442000C94420018
:100060000C9442000C9442000C9442000C94420008
:1000700011241FBECFEFD0E1DEBFCDBF0E944A00EA
:100080000C9495020C9400000E944A028FE08AB9F9
:100090001BB8089580E991E028EC30E0F901319730
:1000A000F1F70197D9F70E94440080E860E00E94D0
:1000B0000F020E9444028FEF61E00E940F020E9433
:1000C00044028FEF61E00E940F020E9444028FEF12
:1000D00061E00E940F020E9444028FEF61E00E94E3
:1000E0000F020E9444028FEF61E00E940F020E9403
:1000F000440280E261E00E940F020E9444028FEFFE
:1001000061E00E940F020E94440280E261E00E94CE
:100110000F020E94440280E261E00E940F020E94EE
:10012000440280E261E00E940F020E9444028FEFCD
:1001300061E00E940F020E94440280E261E00E949E
:100140000F020E9444028FEF61E00E940F020E94A2
:1001500044028FEF61E00E940F020E9444028FEF81
:1001600061E00E940F020E9444028FEF61E00E9452
:100170000F020E94440280EC60E00E940F020E9485
:10018000440280E261E00E940F020E94440280E289
:1001900061E00E940F020E9444028FEF61E00E9422
:1001A0000F020E94440280E261E00E940F020E945E
:1001B000440280E261E00E940F020E94440280E259
:1001C00061E00E940F020E9444028FEF61E00E94F2
:1001D0000F020E94440280E261E00E940F020E942E
:1001E000440280E261E00E940F020E94440280E229
:1001F00061E00E940F020E9444028FEF61E00E94C2
:100200000F020E94440280E261E00E940F020E94FD
:1002100044028FEF61E00E940F020E94440280E2DC
:1002200061E00E940F020E94440280E261E00E94AD
:100230000F020E94440280E261E00E940F020E94CD
:1002400044028FEF61E00E940F020E94440284E9A1
:1002500060E00E940F020E94440280E261E00E947E
:100260000F020E94440280E261E00E940F020E949D
:1002700044028FEF61E00E940F020E94440280E27C
:1002800061E00E940F020E94440280E261E00E944D
:100290000F020E94440280E261E00E940F020E946D
:1002A00044028FEF61E00E940F020E9444028FEF30
:1002B00061E00E940F020E9444028FEF61E00E9401
:1002C0000F020E9444028FEF61E00E940F020E9421
:1002D00044028FEF61E00E940F020E94440280E21C
:1002E00061E00E940F020E9444028FEF61E00E94D1
:1002F0000F020E94440280E261E00E940F020E940D
:10030000440280E261E00E940F020E94440280E207
:1003100061E00E940F020E9444028FEF61E00E94A0
:100320000F020E94440284ED60E00E940F020E94CE
:10033000440280E261E00E940F020E94440280E2D7
:1003400061E00E940F020E9444028FEF61E00E9470
:100350000F020E94440280E261E00E940F020E94AC
:10036000440280E261E00E940F020E94440280E2A7
:1003700061E00E940F020E9444028FEF61E00E9440
:100380000F020E94440280E261E00E940F020E947C
:10039000440280E261E00E940F020E94440280E277
:1003A00061E00E940F020E9444028FEF61E00E9410
:1003B0000F020E94440280E261E00E940F020E944C
:1003C00044028FEF61E00E940F020E9444028FEF0F
:1003D00061E00E940F020E9444028FEF61E00E94E0
:1003E0000F020E9444028FEF61E00E940F020E9400
:1003F0004402FFCF982F1298662311F0119A01C082
:10040000119882B18F7082B982B19295907F892BB9
:1004100082B9139A81E08A95F1F7139808950F93A2
:100420001F93182F062F82958F700E94FA01812F3B
:100430008F70602F0E94FA011F910F910895129AF8
:1004400091B19F7091B9882311F0119A01C0119850
:10045000139A81E08A95F1F780B1139891B1906F6A
:1004600091B9129882958F7008950F931F93182F4A
:100470000E941F02082F0295007F812F0E941F02F9
:10048000802B1F910F91089580E00E94350287FD17
:10049000FBCF08950F931F9381B18E6081B981B115
:1004A000806F81B980E49CE90197F1F783E060E017
:1004B0000E94FA0180E197E20197F1F783E060E0A2
:1004C0000E94FA0108EE13E0C8010197F1F783E0FA
:1004D00060E00E94FA01C8010197F1F782E060E054
:1004E0000E94FA010E94440288E260E00E940F022A
:1004F0000E9444028CE060E00E940F020E944402CD
:1005000086E060E00E940F020E94440281E060E009
:100510000E940F020E94440282E060E00E940F02EB
:0E0520000E9444021F910F910895F894FFCF9E
:00000001FF
