:100000000C9438000C9442000C9442000C94420072
:100010000C9442000C9442000C9442000C94420058
:100020000C9442000C9442000C9442000C94420048
:100030000C9442000C9442000C9442000C94420038
:100040000C9442000C9442000C9442000C94420028
:100050000C9442000C9442000C9442000C94420018
:100060000C9442000C9442000C9442000C94420008
:1000700011241FBECFEFD0E1DEBFCDBF0E944400F0
:100080000C9419010C94000080E991E028EC30E018
:10009000F9013197F1F70197D9F70E94CE0080E876
:1000A00060E00E9494000E94C80088E461E00E9421
:1000B00094000E94C80084E960E00E9494000E94BD
:1000C000C8008CE461E00E9494000E94C80080ECAB
:1000D00060E00E9494000E94C80080E561E00E94F8
:1000E00094000E94C80084ED60E00E9494000E9489
:1000F000C8008DE461E00E9494000E94C800FFCF18
:10010000982F4198662311F0479A01C0479885B10E
:10011000807F85B985B19F70892B85B9409A81E030
:100120008A95F1F7409808950F931F93182F062F83
:1001300082958F700E948000812F8F70602F0E94A7
:1001400080001F910F910895419A94B1907F94B9C6
:10015000882311F0479A01C04798409A81E08A9518
:10016000F1F783B1409894B19F6094B941988F7032
:1001700008950F931F93182F0E94A400082F029533
:10018000007F812F0E94A400802B1F910F91089562
:1001900080E00E94B90087FDFBCF08950F931F9365
:1001A00087B1836887B984B18F6084B980E49CE9A2
:1001B0000197F1F783E060E00E94800080E197E220
:1001C0000197F1F783E060E00E94800008EE13E001
:1001D000C8010197F1F783E060E00E948000C80148
:1001E0000197F1F782E060E00E9480000E94C80061
:1001F00088E260E00E9494000E94C8008CE060E009
:100200000E9494000E94C80086E060E00E94940072
:100210000E94C80081E060E00E9494000E94C80033
:1002200082E060E00E9494000E94C8001F910F913C
:060230000895F894FFCFD1
:00000001FF
