:100000000C944B000C9468000C9468000C946800ED
:100010000C9468000C9468000C9468000C946800C0
:100020000C9468000C9468000C9468000C946800B0
:100030000C9468000C9468000C9468000C946800A0
:100040000C9468000C9468000C947E030C94680077
:100050000C94E0030C9468000C9491010C946800DB
:100060000C9468000C9468000C94BC030C94680019
:100070002E0B610B770BBA0B2F0C4F0C5E0C8D0DFA
:10008000B40D6C0C9A0CCB0CFE0C8D0DB40DC10D87
:10009000EA0D010E3B0E11241FBECFEFD0E1DEBFF3
:1000A000CDBF15E0A0E0B1E0ECE9F2E202C00590BE
:1000B0000D92A433B107D9F715E0A4E3B5E001C070
:1000C0001D92A039B107E1F70E946D030C944C1109
:1000D0000C940000982F1298662311F0119A01C019
:1000E000119882B18F7082B982B19295907F892BDD
:1000F00082B9139A81E08A95F1F7139808950F93C6
:100100001F93182F062F82958F700E946A00812FEF
:100110008F70602F0E946A001F910F910895129AAC
:1001200091B19F7091B9882311F0119A01C0119873
:10013000139A81E08A95F1F780B1139891B1906F8D
:1001400091B9129882958F7008950F931F93182F6D
:100150000E948F00082F0295007F812F0E948F0040
:10016000802B1F910F91089580E00E94A50087FDCC
:10017000FBCF08950F931F9381B18E6081B981B138
:10018000806F81B980E49CE90197F1F783E060E03A
:100190000E946A0080E197E20197F1F783E060E056
:1001A0000E946A0008EE13E0C8010197F1F783E0AE
:1001B00060E00E946A00C8010197F1F782E060E008
:1001C0000E946A000E94B40088E260E00E947F0002
:1001D0000E94B4008CE060E00E947F000E94B400A6
:1001E00086E060E00E947F000E94B40081E060E051
:1001F0000E947F000E94B40082E060E00E947F00C5
:100200000E94B4001F910F9108950F931F93CF93F5
:10021000DF93EC018B0109C0F80181918F0161E04E
:100220000E947F000E94B40021971C161D06A4F3B3
:10023000DF91CF911F910F91089580E28093C000CC
:10024000E1ECF0E0108286E08093C20083E38093CB
:10025000C4001092C50080818064808380818068A2
:1002600080830895E1ECF0E08081886080830895C8
:10027000E1ECF0E08081877F80830895E1ECF0E09D
:100280008081806180830895E1ECF0E080818F7E41
:1002900080830895982F8091C00085FFFCCF9093B4
:1002A000C60008958091C00087FFFCCF8091C600F2
:1002B00008959C01FB010AC090818091C00085FFD8
:1002C000FCCF31969093C600215030401216130691
:1002D0009CF30895249884B18A6284B985B18A63B5
:1002E00085B91CBC8CB58CBD8CB58CBD8CB58061C2
:1002F0008CBD8CB58CBD8CB58CBD8CB582608CBD35
:100300001DBC8DB58DBD8CB580648CBD08958EBD32
:100310000DB407FEFDCF08950DB407FEFDCF8EB5D9
:1003200008951F920F920FB60F9211240F900FBED7
:100330000F901F90189581E080936E0084E085BD3A
:1003400080EC86BD089580913805823009F45AC04A
:10035000833030F4882359F0813009F0B4C02BC0C9
:10036000833009F479C0843009F0ADC09EC080E1CB
:1003700085B985B993B19F7090933405923051F04F
:10038000933018F49130A9F405C0943049F09830B6
:1003900081F40AC084E08093380590933505089570
:1003A0009093380583E07EC084E0809338058CE02C
:1003B00079C081E04EC080E285B985B983B18F7084
:1003C00080933405823071F0833018F48130C1F4A9
:1003D00005C0843061F0883099F40DC084E08093CA
:1003E000380560C084E08093380585E05BC0809369
:1003F000380586E057C084E0809338058DE052C010
:1004000082E027C080E485B985B983B18F7080937D
:100410003405823079F0833018F48130C9F405C096
:10042000843069F08830A1F40EC084E080933805F0
:1004300087E038C084E08093380588E033C080933B
:10044000380589E02FC084E0809338058EE02AC00B
:1004500083E080933805089580E885B985B983B134
:100460008F7080933405823079F0833018F48130B6
:1004700039F505C0843071F0883011F50FC084E083
:10048000809338058AE00EC084E08093380510928E
:1004900035050895809338058BE004C084E080938F
:1004A00038058FE080933505089580EF85B983B1D5
:1004B0008F7080933405882341F481E08093360562
:1004C00010923805089510923805089580917D05A1
:1004D000813009F44EC0813038F0823009F484C094
:1004E000833009F097C0089581E060E00E947F00AA
:1004F00080E860E00E947F000E94B40084E190E008
:1005000060E071E00E94050180EC60E00E947F00E5
:100510000E94B40084E190E065E171E00E94050171
:100520000E9405060E946C0684E960E00E947F003C
:100530000E94B40089E090E064E871E00E94050147
:1005400082E090E06AE271E00E94050189E090E0BB
:100550006AE771E00E94050184E960E00E947F0083
:100560000E94B40084E190E06DE271E00E94050118
:1005700035C0809137058F5F809337058E3170F1DC
:100580000E9405060E946C0684ED60E00E947F00D8
:100590000E94B40089E090E064E871E00E940501E7
:1005A00082E090E06AE271E00E94050189E090E05B
:1005B0006AE771E00E94050184E960E00E947F0023
:1005C0000E94B4008DE090E062E471E00E940501B9
:1005D0000E94CE100E9482101092370580917D05F6
:1005E0008F5F80937D05089581E080937D058091E4
:1005F0003605882389F010923605809135058C30B8
:1006000059F483E080937D0580917E05816080931D
:100610007E05089510927D050895CF93DF93109283
:100620007E0510927D0510923805C0E0D0E0CE0125
:10063000805090400E941B11FE01ED58FA4F8083BC
:100640002196CA30D10599F78AE090E00E942311E3
:10065000909387058093860510928F0510928E05E2
:100660009093850580938405DF91CF910895F89448
:100670000E94BA0080EF84B915B80E941D010E9443
:1006800032010E943E010E9406040E94380788231E
:1006900019F181E060E00E947F0080E860E00E9444
:1006A0007F000E94B40084E190E060E071E00E946D
:1006B000050184E190E060E571E00E94050184E1BC
:1006C00090E065E171E00E94050184E190E065E65B
:1006D00071E00E940501FFCF089580E49CE9019735
:1006E000F1F70E9437030E940D0381E080936E00B2
:1006F00084E085BD80EC86BD7894FFCF1F920F9279
:100700000FB60F9211242F933F934F935F936F93E4
:100710007F938F939F93AF93BF93EF93FF930E9429
:10072000A3010E94660280917E0580FF02C00E94A4
:100730007F0780917E0581FF02C00E943D0E80915F
:100740007E0582FF02C00E941D0B80917E0583FF03
:1007500002C00E940709FF91EF91BF91AF919F9155
:100760008F917F916F915F914F913F912F910F905A
:100770000FBE0F901F9018951F920F920FB60F92F9
:1007800011242F933F934F935F936F937F938F9396
:100790009F93AF93BF93EF93FF930E946405FF91E4
:1007A000EF91BF91AF919F918F917F916F915F91E9
:1007B0004F913F912F910F900FBE0F901F90189562
:1007C0001F920F920FB60F9211242F933F934F93C6
:1007D0005F936F937F938F939F93AF93BF93EF93A9
:1007E000FF930E9452010E944A01FF91EF91BF9135
:1007F000AF919F918F917F916F915F914F913F91B9
:100800002F910F900FBE0F901F901895E8EBF0E01E
:100810001082ACEBB0E01C9288EF8093B90010928C
:10082000BD0081E2808382E08093BA0085EC8C93E6
:100830000895813039F0813018F0823061F406C0BB
:1008400084EA01C084E88093BC0005C084E98093F9
:10085000BC0080E008958091BC0087FFFCCF8091B0
:10086000B900887F08950F931F93F8019091BC0001
:100870009A7B9093BC0070E067707070660F771F72
:10088000582F5295507F562B90E074EA64E89F5F92
:100890009B3009F464C07093BC008091BC0087FF5A
:1008A000FCCF8091B900887F803129F0883399F39B
:1008B000883009F054C05093BB006093BC00809115
:1008C000BC0087FFFCCF8091B900887F8032F9F2AD
:1008D000883309F38831D1F54093BB006093BC00A5
:1008E0008091BC0087FFFCCF8091B900887F803366
:1008F00029F0883381F2883249F503C040E050E0A6
:100900001BC040E050E064E811C080818093BB00D0
:100910006093BC008091BC0087FFFCCF8091B90040
:10092000887F883299F431964F5F5F4FC901841BED
:10093000950B181619064CF384E98093BC008DE0E2
:100940008A95F1F785E48093BC000BC084E980931D
:10095000BC008DE08A95F1F785E48093BC004FEFF1
:100960005FEFCA011F910F9108950F931F93F80134
:100970009091BC009A7B9093BC0070E0677070709F
:10098000660F771F982F9295907F962B792F716025
:1009900050E0A4EA64E85F5F5B3009F48FC0A09385
:1009A000BC008091BC0087FFFCCF8091B900887F9C
:1009B000803129F0883399F3883009F07FC0909313
:1009C000BB006093BC008091BC0087FFFCCF80918E
:1009D000B900887F8032F9F2883309F3883109F051
:1009E00064C04093BB006093BC008091BC0087FF53
:1009F000FCCF8091B900887F803309F44AC08833E6
:100A000071F2883209F051C0A093BC008091BC0003
:100A100087FFFCCF8091B900887F803131F0883327
:100A200009F4BDCF883009F049C07093BB006093D2
:100A3000BC008091BC0087FFFCCF8091B900887F0B
:100A4000803429F0883429F1883379F5A8CF94ECE3
:100A500040E050E01AC02130310509F494E8909349
:100A6000BC008091BC0087FFFCCF8091B900887FDB
:100A7000803521F08835C9F420E030E08091BB005A
:100A800081934F5F5F4F21503040121613061CF3C5
:100A900002C040E050E084E98093BC008DE08A957C
:100AA000F1F785E48093BC000BC084E98093BC001F
:100AB0008DE08A95F1F785E48093BC004FEF5FEFFE
:100AC000CA011F910F9108958091B900887F8037E6
:100AD00081F0813730F4803661F0883609F04EC0FD
:100AE00008C0803999F0803A29F1803809F046C071
:100AF0000DC0109239051092830510927F05109257
:100B0000800510928105109282050EC080913905F2
:100B10009091BB00E82FF0E0E158FA4F90838F5F8F
:100B200080933905843011F085EC01C085E880930D
:100B3000BC00089584E08093BC00809139050E9438
:100B40004A0180917F050E944A01809180050E94A0
:100B50004A018DE00E944A0180917F05882359F463
:100B600080918005882319F40E94631004C08F3F90
:100B700011F40E94471085EC8093BC0008950F93F8
:100B80001F93DF93CF9300D00F92CDB7DEB7222310
:100B900049F0002311F490E001C090E24F714064ED
:100BA000492B01C04F734B836A8389838DE060E0DA
:100BB00040E023E030E08E010F5F1F4F0E943304BE
:100BC0000F900F900F90CF91DF911F910F9108958B
:100BD0000F931F93DF93CF9300D00F92CDB7DEB763
:100BE00089836A834B838DE060E044E023E030E05A
:100BF0008E010F5F1F4F0E9433040F900F900F90D4
:100C0000CF91DF911F910F9108950F931F93DF9361
:100C1000CF9300D00F92CDB7DEB78DE060E040E01B
:100C200023E030E08E010F5F1F4F0E94B504039751
:100C300009F04AC08981282F2F70205D20938101FF
:100C400090E08077907054E0959587955A95E1F7FC
:100C5000805D809380018A81282F2F70205D2093F2
:100C60007E0190E08077907044E0959587954A9555
:100C7000E1F7805D80937D019B81892F8F70805D7E
:100C800080937B01292F30E096FF13C0C90180714A
:100C9000907034E0959587953A95E1F7805D809363
:100CA0007A0125FD02C081E601C080E780938201C0
:100CB0000BC02073307084E0359527958A95E1F755
:100CC000822F805D80937A010F900F900F90CF91CB
:100CD000DF911F910F9108950F931F93DF93CF938F
:100CE00000D00F92CDB7DEB78DE060E044E023E0A6
:100CF00030E08E010F5F1F4F0E94B504039709F08B
:100D0000AFC09B81892F8F70805D80938C019295FD
:100D10009F70905D90938B019981892F8F70805D7A
:100D20008093890192959F70905D909388018A814C
:100D300090E08F7190708630910509F458C087302B
:100D40009105ACF48330910509F43CC084309105E1
:100D50003CF48130910531F1029709F081C02AC03D
:100D600084309105A1F1059709F07AC038C0893027
:100D7000910509F454C08A30910544F487309105F7
:100D800009F43DC0089709F06BC041C0813191055D
:100D900009F455C08231910509F459C0409709F012
:100DA0005FC045C085E4809384018EE68093850111
:100DB00085E654C086E48093840185E680938501AE
:100DC00082E64CC08DE48093840181E604C081E416
:100DD0008093840182E68093850182E73FC08DE4A1
:100DE0008093840181E68093850189E737C08AE496
:100DF0008093840185E7809385018EE62FC08AE485
:100E00008093840185E7809385018CE627C081E487
:100E10008093840187E6809385018FE61FC083E578
:100E20008093840185E68093850180E717C08FE475
:100E30008093840183E68093850184E70FC08EE46C
:100E4000809384018FE68093850186E707C084E460
:100E50008093840189E68093850183E680938601EF
:100E60000F900F900F90CF91DF911F910F910895E8
:100E7000EF92FF920F931F93DF93CF93CDB7DEB71F
:100E800028970FB6F894DEBF0FBECDBF8DE060E0AF
:100E900040E028E030E07E010894E11CF11C87016D
:100EA0000E94B5040897E1F4898187FD02C020E023
:100EB00018C019821A8282E58B8386E08C8381E0D8
:100EC0008D838E8380E18F8318868DE060E040E023
:100ED00028E030E087010E94330420E0089709F001
:100EE00021E0822F28960FB6F894DEBF0FBECDBF4B
:100EF000CF91DF911F910F91FF90EF900895809116
:100F00006F05823009F496C0833030F4882359F09D
:100F1000813009F079C152C0833009F407C18430AF
:100F200009F072C13BC181E060E00E947F0080E86F
:100F300060E00E947F000E94B40083E190E06EE8D0
:100F400071E00E94050180EC60E00E947F000E9439
:100F5000B40081E190E062EA71E00E94050184E959
:100F600060E00E947F000E94B40083E190E064EBA7
:100F700071E00E94050184ED60E00E947F000E9404
:100F8000B4008FE090E068EC71E00E94050189ED0B
:100F900060E00E947F000E94B4008FE060E00E9449
:100FA0007F000E94B40010926E05E4E6F5E08FEF3A
:100FB000819395E0EE36F907D9F7ECC080913605BC
:100FC000882309F423C110923605909135059A3093
:100FD000F0F480916E058A3008F018C1E82FF0E037
:100FE000EC59FA4F90838F5F80936E058AE261E03F
:100FF0000E947F000E94B40080916E058A3021F427
:101000008CE060E00E947F000E94B40008959B3055
:1010100039F48CE060E00E947F000E94B400BAC006
:101020009F3009F0F3C08CE060E00E947F000E94D6
:10103000B400E0C083E080936F0570916E05472F88
:1010400050E061E020E030E00CC0F901EC59FA4FCB
:10105000D901AD58BA4F90818C91981360E02F5F01
:101060003F4F241735078CF3FA01ED58FA4F20E073
:1010700030E0472F50E007C080818F3F09F060E0EB
:101080002F5F3F4F3196C901840F951F0A97A4F334
:10109000662309F0BBC081E00E947F0080E860E029
:1010A0000E947F000E94B40083E190E068ED71E04F
:1010B0000E94050180EC60E00E947F000E94B40065
:1010C00083E190E06CEE71E00E94050184E960E04C
:1010D0000E947F000E94B40083E190E060E072E033
:1010E0000E94050184ED60E00E947F000E94B40030
:1010F0008FE090E068EC71E00E94050189ED60E00E
:101100000E947F000E94B4008FE060E00E947F0098
:101110000E94B40010926E05E4E6F5E08FEF819333
:1011200095E0EE36F907D9F781E058C081E060E03C
:101130000E947F0080E860E00E947F000E94B4006F
:1011400081E190E062EA71E00E94050180EC60E0DC
:101150000E947F000E94B40084E190E064E172E0AC
:101160000E94050184E960E00E947F000E94B400B3
:101170008FE090E069E272E00E94050184ED60E09A
:101180000E947F000E94B40082E190E069E372E077
:101190000E94050180916F058F5F20C08091360508
:1011A0008823A1F11092360590913505923079F09F
:1011B000933018F4913051F505C0933091F09F3081
:1011C00029F518C080917E058E7F826004C08091D1
:1011D0007E058E7F846080937E0583E080936F051B
:1011E000089580917E058E7F886080937E05909320
:1011F0006F05089510927D0580917E058E7F809306
:101200007E0510926F05089510926F0508950F9353
:101210001F93CF93DF9380914F05843009F419C158
:10122000853060F4813009F44FC08130D0F08230D5
:1012300009F45DC0833009F0F9C1AEC0873009F40C
:1012400098C1883038F4853009F44CC1863009F0F3
:10125000EDC17BC1883009F4A7C1893009F0E6C12E
:10126000D1C181E060E00E947F0080E860E00E94E0
:101270007F000E94B40081E190E06CE472E00E9483
:10128000050180EC60E00E947F000E94B4008DE0C8
:1012900090E06EE572E00E94050184E960E00E9442
:1012A0007F000E94B40080E190E06CE672E00E9452
:1012B000050184ED60E00E947F000E94B40083E19C
:1012C00090E06DE772E096C180913605882309F4BD
:1012D000AFC11092360580913505843008F042C1C7
:1012E000823008F042C1813009F0A2C139C181E0E9
:1012F00060E00E947F0080E860E00E947F000E9422
:10130000B40084E190E061E972E00E94050180ECA4
:1013100060E00E947F000E94B40084E190E066EAF1
:1013200072E00E94050184E960E00E947F000E9453
:10133000B40084E190E06BEB72E00E94050184ED63
:1013400060E00E947F000E94B4008FE090E068ECB3
:1013500071E00E94050189ED60E00E947F000E941B
:10136000B4008CE060E00E947F0080914F058F5FA9
:1013700080934F0510924E0580E090E02FEFFC0126
:10138000EC5BFA4F2083FC01E65CFA4F2083019668
:101390008A309105A1F7A3C080913605882309F40E
:1013A00047C11092360590914E059B30E0F4809134
:1013B00035058A30C0F4E92FF0E0EC5BFA4F80830A
:1013C0009F5F90934E05805D61E00E947F000E94C8
:1013D000B40080914E058A3031F48CE060E00E94C8
:1013E0007F000E94B400809135058B3009F020C148
:1013F00081E060E00E947F0080E860E00E947F0062
:101400000E94B40084E190E061E972E00E9405016D
:1014100084E960E00E947F000E94B40083E190E0D4
:1014200060ED72E00E94050184ED60E00E947F00A3
:101430000E94B4008FE090E068EC71E00E9405012A
:1014400089ED60E00E947F000E94B40010924E057A
:10145000D3C080913605882309F4EAC0109236057E
:1014600090914E059B30E0F4809135058A30C0F4B0
:10147000E92FF0E0E65CFA4F80839F5F90934E0582
:10148000805D61E00E947F000E94B40080914E0563
:101490008A3031F48CE060E00E947F000E94B4004A
:1014A000809135058B3009F0C3C020E030E0F901B0
:1014B000EC5BFA4FD901A65CBA4F90818C919817DA
:1014C00011F085E006C02F5F3F4F2A30310579F7D4
:1014D00087E080934F058CE060E00E947F000E94CF
:1014E000B400A6C081E060E00E947F0080E860E078
:1014F0000E947F000E94B40082E190E064EE72E0FE
:101500000E94050180EC60E00E947F000E94B40010
:101510008EE090E067EF72E00E94050184E960E0F0
:101520000E947F000E94B40083E190E066E073E0D7
:101530000E94050184ED60E00E947F000E94B400DB
:101540008FE090E06AE173E055C080913605882312
:1015500009F46EC010923605809135058B3011F478
:1015600082E04DC08F3009F063C080917E05877F97
:101570005AC000E010E0C0E0D0E0FE01EC5BFA4FA2
:10158000C80160810E942911F999FECFC8010E940B
:101590001B11FE01ED58FA4F808321960F5F1F4FFC
:1015A000CA30D10551F728C081E060E00E947F0079
:1015B00080E860E00E947F000E94B40081E190E03A
:1015C0006AE273E00E94050184E960E00E947F0006
:1015D0000E94B40082E190E06CE373E00E94050198
:1015E00084ED60E00E947F000E94B4008EE090E0F5
:1015F0006FE473E00E94050180914F058F5F809337
:101600004F0516C080913605882391F0109236055B
:10161000809135058B3029F480917E05877F8093FA
:101620007E0580917E05816080937E0510924F0536
:10163000DF91CF911F910F9108950F9380915E05D7
:10164000E82FF0E0E331F10508F013C3E85CFF4F49
:10165000EE0FFF1F0590F491E02D099481E060E00A
:101660000E947F0080E860E00E947F000E94B4003A
:101670008FE090E06EE573E00E94050180EC60E091
:101680000E947F000E94B40080E190E06EE673E06B
:101690000E94050184E960E00E947F000E94B4007E
:1016A0008FE090E06FE773E00E94050184ED60E059
:1016B0000E947F000E94B40083E090E06FE873E036
:1016C00086C280913605882309F4D5C2109236056A
:1016D00080913505823009F488C2833020F481304E
:1016E00009F0C9C2F7C0833009F081C283C281E02A
:1016F00060E00E947F0080E860E00E947F000E941E
:10170000B40083E190E063E973E00E94050180EC9E
:1017100060E00E947F000E94B4008EE090E067EAE3
:1017200073E00E94050184E960E00E947F000E944E
:10173000B4008EE090E066EB73E00E94050184ED5A
:1017400060E00E947F000E94B4008EE090E065ECB3
:1017500073E00E9405018CEC60E00E947F000E9413
:10176000B4008FE060E00E947F000E94B4001092FD
:101770005D0579C280913605882309F47CC21092F8
:10178000360580915D05882341F4809135058430CC
:1017900008F071C2809355051FC08130A1F480917B
:1017A00035058A3008F067C280935605805D61E098
:1017B0000E947F000E94B40080915D058F5F80933E
:1017C0005D0580EAA1C1823099F4809135058230AF
:1017D00008F051C280935705805D61E00E947F0050
:1017E0000E94B40080915D058F5F80935D0543C2C8
:1017F0008330A1F4809135058A3008F03CC2809393
:101800005805805D61E00E947F000E94B4008091D5
:101810005D058F5F80935D0580EE76C1843041F475
:10182000809135058A3008F026C280935905D4CFBF
:10183000853009F020C2809135058A3008F01BC23E
:1018400080935A05805D61E00E947F000E94B40091
:101850008CE060E00E947F000E94B40004C280918E
:1018600055058295807F209156052F706091570510
:101870006295607F909158059F70692B4091590542
:101880004295407F90915A059F70492B822B0E9470
:10189000E805833011F085E0E9C187E0E7C181E028
:1018A00060E00E947F0080E860E00E947F000E946C
:1018B000B40084E190E064ED73E071C1809136057D
:1018C000882309F4D8C110923605809135058B30F4
:1018D00009F08DC182E0CAC181E060E00E947F0012
:1018E00080E860E00E947F000E94B40083E190E005
:1018F0006EEF73E00E94050180EC60E00E947F00C3
:101900000E94B40083E190E062E174E00E9405016E
:1019100084E960E00E947F000E94B40083E190E0CF
:1019200066E274E00E94050180915E058F5F8093FE
:101930005E05F0C080913605882309F49CC1809132
:101940003505813071F480EC60E00E947F000E94D8
:10195000B40083E190E06AE374E00E9405018BE04B
:1019600015C08230A9F484E960E00E947F000E94E3
:10197000B40083E190E06EE474E00E9405018FE022
:1019800060E00E947F000E94B40081E180935E05C8
:101990001092360570C181E060E00E947F0080E80F
:1019A00060E00E947F000E94B40083E190E06EEF4F
:1019B00073E00E94050180EC60E00E947F000E94BD
:1019C000B40083E190E062E674E00E94050184E9DE
:1019D00060E00E947F000E94B40082E190E066E730
:1019E00074E00E94050184ED60E00E947F000E9487
:1019F000B40081E190E069E874E029C18091360586
:101A0000882309F438C11092360580915D05823033
:101A100091F1833030F4882351F0813009F07AC09D
:101A20000EC0833081F1843009F074C043C08091CE
:101A30003505823008F01FC180935005CDCE8091CE
:101A40005005882331F4809135058A3008F013C1A0
:101A500008C0813009F00FC180913505833008F04E
:101A60000AC180935105805D61E00E947F000E9461
:101A7000B4008AE3B2CE80913505863008F0FBC011
:101A800080935205A9CE809135058A3008F0F3C0C5
:101A900080935305805D61E00E947F000E94B40046
:101AA00080915D058F5F80935D0585EA60E00E940F
:101AB0007F00E1C080913505813019F41092540502
:101AC00005C0823019F481E080935405609152057D
:101AD0006295607F809153058F70682B409150050F
:101AE0004295407F809151058F70482B80E021E026
:101AF000009154050E94BF05833011F08FE001C0B2
:101B00008DE080935E058CE060E00E947F000E9483
:101B1000B400B1C010925D05AEC081E060E00E94EB
:101B20007F0080E860E00E947F000E94B40081E1B5
:101B300090E06AE273E00E94050184E960E00E949F
:101B40007F000E94B40082E190E06CE373E00E94A9
:101B5000050184ED60E00E947F000E94B4008EE0E9
:101B600090E06FE473E033C080913605882309F478
:101B700082C010923605809135058B3009F07BC00C
:101B800078C081E060E00E947F0080E860E00E9411
:101B90007F000E94B40083E190E06BE974E00E9452
:101BA000050184E960E00E947F000E94B40082E1A8
:101BB00090E06CE373E00E94050184ED60E00E9418
:101BC0007F000E94B40084E190E069EE73E00E941F
:101BD000050149C080913605882309F44CC0109254
:101BE0003605809135058B3011F489E03FC08F3088
:101BF00009F041C080917E058B7F816080937E05D6
:101C000038C081E060E00E947F0080E860E00E94D0
:101C10007F000E94B40083E190E06EEF73E00E94C9
:101C2000050180EC60E00E947F000E94B40083E127
:101C300090E06FEA74E00E94050184ED60E00E948C
:101C40007F000E94B4008AE090E063EC74E00E94A0
:101C500005018FE060E00E947F000E94B40089E9E6
:101C600060E00E947F0080915E058F5F80935E053B
:101C700002C010925E050F91089580916305823035
:101C800009F463C0833030F4882371F0813009F0A7
:101C900026C13DC0843009F4E7C0843008F49EC0FA
:101CA000853009F01CC10EC181E060E00E947F0018
:101CB00080E860E00E947F000E94B40082E190E032
:101CC0006EEC74E00E94050180EC60E00E947F00F1
:101CD0000E94B40080E190E061EE74E00E94050192
:101CE00084E960E00E947F000E94B40083E090E0FD
:101CF00062EF74E00E94050184ED60E00E947F00C5
:101D00000E94B40083E090E06FE873E0D3C080915C
:101D10003605882309F4E5C0109236058091350513
:101D2000843030F4823050F4813009F0DAC004C0DD
:101D30008F3009F0D6C002C082E0C1C080917E051C
:101D40008D7F816080937E05C7C081E060E00E9446
:101D50007F0080E860E00E947F000E94B40082E182
:101D600090E06EEC74E00E94050180EC60E00E945F
:101D70007F000E94B40084E190E066EF74E00E946E
:101D8000050184E960E00E947F000E94B40084E1C4
:101D900090E06BE075E00E94050184ED60E00E9438
:101DA0007F000E94B40083E190E060E275E00E9451
:101DB00005018FE060E00E947F000E94B40084EE85
:101DC00060E00E947F000E94B400109262051092B1
:101DD0005F0510926005109261056EC08091360516
:101DE000882309F47EC010923605909162059330E5
:101DF000E0F4809135058A3070F4E92FF0E0E15A83
:101E0000FA4F80839F5F90936205805D61E00E943E
:101E10007F000E94B40080916205833021F48CE041
:101E200060E00E947F000E94B400809162058330D0
:101E300009F057C0809135058B3009F052C0809170
:101E40005F0524E6829FC0011124209160054AE0CD
:101E5000249F90011124820F931F20916105820F0E
:101E6000911D0E94B41028C081E060E00E947F00B4
:101E700080E860E00E947F000E94B40081E190E071
:101E80006AE273E00E94050184E960E00E947F003D
:101E90000E94B40082E190E06CE373E00E940501CF
:101EA00084ED60E00E947F000E94B4008EE090E02C
:101EB0006FE473E00E940501809163058F5F80935A
:101EC0006305089580913605882359F010923605F0
:101ED000809135058B3029F4109263050895109296
:101EE00063050895EF92FF920F931F93E09186058B
:101EF000F0918705CF0164E670E00E9407116093BE
:101F0000880570E08CE9E82E8FEFF82E6E9D900129
:101F10006F9D300D7E9D300D1124C9018E0F9F1FC6
:101F20006AE070E00E940711609389052E0F06EFAA
:101F30001FEF609F602D1124620F60938A05E0916E
:101F40008405F0918505CF0164E670E00E940711D9
:101F500060938B0570E06E9D90016F9D300D7E9DAE
:101F6000300D1124C9018E0F9F1F6AE070E00E949E
:101F7000071160938C052E0F609F602D1124620F56
:101F800060938D051F910F91FF90EF9008958091C0
:101F9000840590918505892B09F072C0809182019A
:101FA000882339F080917D01482F50E048555441F5
:101FB00006C080917D01482F50E0405D54418091E2
:101FC0007A0124E6829FC0011124480F591F809195
:101FD0007B012AE0829FC0011124480F591F47341A
:101FE000510534F4109270051092710581E045C0DE
:101FF0004C34510534F4109270051092710583E051
:102000003CC04435510534F14E35510554F1453647
:1020100051053CF14F365105ECF04338510534F48D
:102020001092700581E0809371052EC040395105F2
:1020300034F4109270051092710588E01EC0443A85
:1020400051052CF410927005109271050FC04E3A94
:10205000510524F41092700581E006C04C3C5105F6
:102060003CF41092700582E08093710585E005C014
:1020700081E08093700580937105809372050895C7
:1020800010927005109271051092720508952091BA
:102090008E0530918F0521153105A1F0215030407A
:1020A00030938F0520938E0580918605909187054A
:1020B000821B930B9093850580938405019711F4FF
:1020C0000E94C70F08958091840590918505892B02
:1020D000C1F020918E0530918F052F5F3F4F3093D7
:1020E0008F0520938E058091860590918705821B30
:1020F000930B9093850580938405892B11F40E949E
:10210000C70F08950E94720F81E40E944A018091D6
:102110008B050E944A0180918C050E944A018091A2
:102120008D050E944A01809170050E944A018091AC
:1021300071050E944A01809172050E944A018091B6
:102140007A0180530E944A0180917B0180530E9452
:102150004A0180917D0180530E944A0180917E0155
:1021600080530E944A010895BC01809386057093B4
:1021700087058AE090E00E943711F999FECF80919F
:1021800086059091870520918E0530918F05821BE1
:10219000930B909385058093840508950E94720F98
:1021A00080918B05805D61E00E947F000E94B400F9
:1021B00080918C05805D61E00E947F000E94B400E8
:1021C00080918D05805D61E00E947F000E94B400D7
:1021D0008FE261E00E947F000E94B4008091880538
:1021E000805D61E00E947F000E94B40080918905BB
:1021F000805D61E00E947F000E94B40080918A05AA
:10220000805D61E00E947F000E94B4000895AA1BD7
:10221000BB1B51E107C0AA1FBB1FA617B70710F0D1
:10222000A61BB70B881F991F5A95A9F78095909503
:10223000BC01CD010895F999FECF92BD81BDF89AF8
:10224000992780B50895A8E1B0E042E050E00C94F1
:102250003E11262FF999FECF1FBA92BD81BD20BD38
:102260000FB6F894FA9AF99A0FBE019608950E9453
:102270002911272F0C942A11DC01CB01FC01F999BB
:10228000FECF06C0F2BDE1BDF89A319600B40D92C2
:0C22900041505040B8F70895F894FFCF7B
:10229C00504152515545414445524F2045444946C1
:1022AC004943494F002020202053414E544F444F66
:1022BC004D494E474F2020202000202000437570B0
:1022CC006F73204C69627265733A3030302F303046
:1022DC0030004375706F73204C69627265733A00FD
:1022EC004552524F523A204E6F20657320706F73D7
:1022FC0069626C6500636F6D756E69636163696FAC
:10230C006E20636F6E205254430020203A20203AF6
:10231C00202020202020202020202F202020494E4B
:10232C00475245534F2053454755524F2041524534
:10233C00410020202041444D494E495354524143C1
:10234C00494F4E0020496E677265736520436F6E6E
:10235C0074726173656E610020202020205F5F5FC6
:10236C005F5F5F5F5F5F5F00204552524F52202DD1
:10237C0020434F4E54524153454E410020202020C3
:10238C0020494E434F5252454354412020202000B7
:10239C0020496E74656E74656C6F206465206E7573
:1023AC0065766F00312E204461746F73205061721A
:1023BC00717565616465726F00322E2046656368C5
:1023CC0061207920486F726100332E20436F6E6656
:1023DC00696775726163696F6E6573002020434F86
:1023EC004E46494755524143494F4E455300312EB5
:1023FC0020436F6E74726173656E6100322E2052D1
:10240C0065736574204661627269636100332E20C6
:10241C004175746F636F6D70726F626163696F6E1B
:10242C000043414D42494F20444520434F4E5452A6
:10243C004153454E4100496E677265736520756E58
:10244C006120636F6E7472616E61006465206861F7
:10245C0073746120313063617261637465727300EF
:10246C005265706574697220636F6E747261736506
:10247C006E613A00204552524F52202D2043414D5F
:10248C0042494F2044450020202020434F4E5452B7
:10249C004153454E4100204461746F73206E6F2090
:1024AC00436F696E636964656E002020205072650D
:1024BC0073696F6E6573204F6B0020202043414D74
:1024CC0042494F20455849544F534F0020205072D9
:1024DC006573696F6E65204F4B20706172610020CF
:1024EC0020202020636F6E74696E7561720020204D
:1024FC00204645434841205920484F524100312E37
:10250C002043616D626961722046656368610032C7
:10251C002E2043616D6269617220486F72610033D5
:10252C002E2000494E4752455345204E55455641A5
:10253C002046454348410020202020204469613A30
:10254C002020205F5F0020202020204D65733A2042
:10255C0020205F5F002020202020416E6F3A203227
:10256C00305F5F004552524F52202D2043414D4267
:10257C00494F20464543484100696E74656E74614D
:10258C00726C6F206465206E7565766F2100204932
:10259C004E4752455345204E5545564120484F52C3
:1025AC004100466F726D61746F20283129203132E1
:1025BC00486F7261730020202020202020202832B8
:1025CC0029203234486F72617300466F726D6174EA
:1025DC006F20283129203132487273205800202076
:1025EC0020202020202028322920323448727320C9
:1025FC00580020656E20666F726D61746F203132E9
:10260C00486F7261730020202020205F5F3A5F5F6B
:10261C00202020412F503A5F002020202020202015
:10262C00414D3A3120504D3A2032004552524F52D2
:10263C00202D2043414D42494F20484F524100200C
:10264C00656E20666F726D61746F203234686F72C4
:10265C0061730020202020205F5F3A5F5F002044E0
:10266C0041544F5320504152515545414445524FCE
:10267C0000312E204375706F7320546F74616C653C
:10268C007300322E2000496E677265736520656C8D
:10269C00206E756D65726F206465006375706F7365
:1026AC0020646973706F6E69626C657320656E006F
:1026BC00656C20706172717565616465726F3A202A
:0426CC005F5F5F00ED
:00000001FF
