:100000000C9438000C9442000C9442000C94420072
:100010000C9442000C9442000C9442000C94420058
:100020000C9442000C9442000C9442000C94420048
:100030000C9442000C9442000C9442000C94420038
:100040000C9442000C9442000C9442000C94420028
:100050000C9476000C9442000C944E000C944200D8
:100060000C9442000C9442000C9442000C94420008
:1000700011241FBECFEFD0E1DEBFCDBF0E949E0096
:100080000C94E6010C9400000E945C018FE08AB998
:100090001BB80E94A7010E94BF0108951F920F92F2
:1000A0000FB60F9211242F933F934F935F936F934B
:1000B0007F938F939F93AF93BF93EF93FF938FEFB4
:1000C00061E00E9421010E945601FF91EF91BF91D2
:1000D000AF919F918F917F916F915F914F913F91E0
:1000E0002F910F900FBE0F901F9018951F920F9297
:1000F0000FB60F9211242F933F934F935F936F93FB
:100100007F938F939F93AF93BF93EF93FF9388E574
:1001100061E00E9421010E945601FF91EF91BF9181
:10012000AF919F918F917F916F915F914F913F918F
:100130002F910F900FBE0F901F9018951F93CF9384
:10014000DF9380E991E028EC30E0F9013197F1F795
:100150000197D9F70E944400789480E860E00E94FB
:1001600021010E94560180E3C8ECD0E028EE33E084
:10017000FE013197F1F721503040D1F728EE33E0FE
:10018000FE013197F1F721503040D1F728EE33E0EE
:10019000FE013197F1F721503040D1F728EE33E0DE
:1001A000FE013197F1F721503040D1F728EE33E0CE
:1001B000FE013197F1F721503040D1F728EE33E0BE
:1001C000FE013197F1F721503040D1F728EE33E0AE
:1001D000FE013197F1F721503040D1F728EE33E09E
:1001E000FE013197F1F721503040D1F728EE33E08E
:1001F000FE013197F1F721503040D1F728EE33E07E
:10020000FE013197F1F721503040D1F7182F1F5FD1
:100210000E94D701812FAACF982F1298662311F040
:10022000119A01C0119882B18F7082B982B19295F2
:10023000907F892B82B9139A81E08A95F1F7139800
:1002400008950F931F93182F062F82958F700E9489
:100250000C01812F8F70602F0E940C011F910F9154
:100260000895129A91B19F7091B9882311F0119A53
:1002700001C01198139A81E08A95F1F780B1139823
:1002800091B1906F91B9129882958F7008950F93E4
:100290001F93182F0E943101082F0295007F812F94
:1002A0000E943101802B1F910F91089580E00E94E0
:1002B000470187FDFBCF08950F931F9381B18E6097
:1002C00081B981B1806F81B980E49CE90197F1F730
:1002D00083E060E00E940C0180E197E20197F1F772
:1002E00083E060E00E940C0108EE13E0C801019772
:1002F000F1F783E060E00E940C01C8010197F1F77B
:1003000082E060E00E940C010E94560188E260E0F9
:100310000E9421010E9456018CE060E00E942101B0
:100320000E94560186E060E00E9421010E94560171
:1003300081E060E00E9421010E94560182E060E0BD
:100340000E9421010E9456011F910F91089580E2A1
:100350008093C000E1ECF0E01082A2ECB0E086E017
:100360008C938FEC8093C4001092C50080818064D0
:100370008083808180838C9180628C930895E1ECEE
:10038000F0E08081886080830895E1ECF0E0808176
:10039000877F80830895E1ECF0E080818061808335
:1003A0000895E1ECF0E080818F7E80830895982F9E
:1003B0008091C00085FFFCCF9093C6000895809186
:1003C000C00087FFFCCF8091C6000895F894FFCF4E
:00000001FF
