:100000000C9438000C9455000C9455000C94550039
:100010000C9455000C9455000C9455000C9455000C
:100020000C9455000C9455000C9455000C945500FC
:100030000C9455000C9455000C9455000C945500EC
:100040000C9455000C9455000C946E030C945500C0
:100050000C94DB030C9455000C947E010C94550019
:100060000C9455000C9455000C9488010C94550088
:1000700011241FBECFEFD0E1DEBFCDBF11E0A0E065
:10008000B1E0EEE3FEE002C005900D92AA3CB1079C
:10009000D9F711E0AAECB1E001C01D92AC3DB10767
:1000A000E1F70E94CA030C941D070C940000982FDE
:1000B0001298662311F0119A01C0119882B18F70C5
:1000C00082B982B19295907F892B82B9139A81E08F
:1000D0008A95F1F7139808950F931F93182F062F01
:1000E00082958F700E945700812F8F70602F0E9421
:1000F00057001F910F910895129A91B19F7091B975
:10010000882311F0119A01C01198139A81E08A9501
:10011000F1F780B1139891B1906F91B912988295CF
:100120008F7008950F931F93182F0E947C00082F43
:100130000295007F812F0E947C00802B1F910F91E0
:10014000089580E00E94920087FDFBCF08950F93F1
:100150001F9381B18E6081B981B1806F81B980E4D4
:100160009CE90197F1F783E060E00E94570080E18D
:1001700097E20197F1F783E060E00E94570008EEF4
:1001800013E0C8010197F1F783E060E00E94570097
:10019000C8010197F1F782E060E00E9457000E94D9
:1001A000A10088E260E00E946C000E94A1008CE047
:1001B00060E00E946C000E94A10086E060E00E9466
:1001C0006C000E94A10081E060E00E946C000E942F
:1001D000A10082E060E00E946C000E94A1001F91DB
:1001E0000F9108950F931F93CF93DF93EC018B0131
:1001F00009C0F80181918F0161E00E946C000E94AA
:10020000A10021971C161D06A4F3DF91CF911F9129
:100210000F91089580E28093C000E1ECF0E010823D
:1002200086E08093C20083E38093C4001092C500EF
:100230008081806480838081806880830895E1EC80
:10024000F0E08081886080830895E1ECF0E08081B7
:10025000877F80830895E1ECF0E080818061808376
:100260000895E1ECF0E080818F7E80830895982FDF
:100270008091C00085FFFCCF9093C60008958091C7
:10028000C00087FFFCCF8091C60008959C01FB0150
:100290000AC090818091C00085FFFCCF3196909379
:1002A000C60021503040121613069CF3089524987E
:1002B00084B18A6284B985B18A6385B91CBC8CB566
:1002C0008CBD8CB58CBD8CB580618CBD8CB58CBD66
:1002D0008CB58CBD8CB582608CBD1DBC8DB58DBDC3
:1002E0008CB580648CBD08958EBD0DB407FEFDCF26
:1002F00008950DB407FEFDCF8EB508951F920F929D
:100300000FB60F9211240F900FBE0F901F901895EB
:100310001F920F920FB60F9211248F939F93EF931A
:10032000FF938091B900887F803701F1813728F4ED
:100330008036E1F0883649F519C0803921F0803ADD
:1003400091F0803811F58091CF019091BB00E82F9A
:10035000F0E0E053FE4F90838F5F8093CF018430B5
:1003600089F485E810C084E08093BC001092CF012E
:100370001092D4011092D0011092D1011092D201AA
:100380001092D30185EC8093BC00FF91EF919F9177
:100390008F910F900FBE0F901F90189581E0809362
:1003A0006E0084E085BD80EC86BD08958091DB0100
:1003B000823009F45AC0833030F4882359F08130F8
:1003C00009F0B4C02BC0833009F479C0843009F03F
:1003D000ADC09EC080E185B985B993B19F709093FF
:1003E000CA01923051F0933018F49130A9F405C04D
:1003F000943049F0983081F40AC084E08093DB01A6
:100400009093CB0108959093DB0183E07EC084E05C
:100410008093DB018CE079C081E04EC080E285B939
:1004200085B983B18F708093CA01823071F08330B7
:1004300018F48130C1F405C0843061F0883099F43B
:100440000DC084E08093DB0160C084E08093DB0119
:1004500085E05BC08093DB0186E057C084E0809339
:10046000DB018DE052C082E027C080E485B985B908
:1004700083B18F708093CA01823079F0833018F491
:100480008130C9F405C0843069F08830A1F40EC011
:1004900084E08093DB0187E038C084E08093DB0157
:1004A00088E033C08093DB0189E02FC084E0809333
:1004B000DB018EE02AC083E08093DB01089580E8B1
:1004C00085B985B983B18F708093CA01823079F084
:1004D000833018F4813039F505C0843071F08830EC
:1004E00011F50FC084E08093DB018AE00EC084E048
:1004F0008093DB011092CB0108958093DB018BE0A8
:1005000004C084E08093DB018FE08093CB010895E9
:1005100080EF85B983B18F708093CA01882341F43D
:1005200081E08093CC011092DB0108951092DB01F1
:1005300008958091CE01823009F479C0833030F47F
:10054000882359F0813009F0C6C04AC0833009F4CD
:100550007DC0843009F0BFC0B3C081E060E00E947C
:100560006C0080E860E00E946C000E94A10084E1C1
:1005700090E060E071E00E94F20080EC60E00E9498
:100580006C000E94A10084E190E065E171E00E94AE
:10059000F2000E94A3050E940A0684E960E00E941E
:1005A0006C000E94A10089E090E060EC71E00E9484
:1005B000F20082E090E06AE271E00E94F20089E0DD
:1005C00090E066EB71E00E94F20084E960E00E9436
:1005D0006C000E94A10084E190E06DE271E068C0CF
:1005E0008091CD018F5F8093CD018E3108F462C080
:1005F0000E94A3050E940A0684ED60E00E946C0040
:100600000E94A10089E090E060EC71E00E94F2009D
:1006100082E090E06AE271E00E94F20089E090E0FE
:1006200066EB71E00E94F2001092CD0143C081E0C0
:100630008093CE018091CC01882309F44EC0809133
:10064000CB018C3009F049C083E037C081E060E025
:100650000E946C0080E860E00E946C000E94A10093
:1006600083E190E062E471E00E94F20080EC60E0DF
:100670000E946C000E94A10081E190E066E571E0BB
:100680000E94F20084E960E00E946C000E94A100D8
:1006900083E190E068E671E00E94F20084ED60E0A2
:1006A0000E946C000E94A1008FE090E06CE771E076
:1006B0000E94F2008091CE018F5F8093CE01089559
:1006C0008091CC01882349F08091CB018D3029F4B1
:1006D0001092CE0108951092CE0108951F920F92AC
:1006E0000FB60F9211242F933F934F935F936F9305
:1006F0007F938F939F93AF93BF93EF93FF930E944A
:10070000D6010E949902FF91EF91BF91AF919F9105
:100710008F917F916F915F914F913F912F910F90AA
:100720000FBE0F901F901895F8940E94A70080EFBD
:1007300084B915B80E940A010E941F010E942B0172
:100740000E940A040E94D606882319F181E060E025
:100750000E946C0080E860E00E946C000E94A10092
:1007600084E190E060E071E00E94F20084E190E0BA
:100770006CE871E00E94F20084E190E065E171E0D4
:100780000E94F20084E190E061EA71E00E94F200D0
:10079000FFCF089580E49CE90197F1F70E9494034C
:1007A00081E080936E0084E085BD80EC86BD789406
:1007B0001092DB01FFCF1F920F920FB60F92112400
:1007C0001F932F933F934F935F936F937F938F93D9
:1007D0009F93AF93BF93EF93FF930E943F01182F16
:1007E00061E00E946C000E94A100812F0E943701ED
:1007F000FF91EF91BF91AF919F918F917F916F91F9
:100800005F914F913F912F911F910F900FBE0F90CD
:100810001F901895E8EBF0E01082ACEBB0E01C9272
:1008200088EF8093B9001092BD0081E2808382E05E
:100830008093BA0085EC8C930895813039F0813033
:1008400018F0823061F406C084EA01C084E8809325
:10085000BC0005C084E98093BC0080E008958091CD
:10086000BC0087FFFCCF8091B900887F08950F936B
:100870001F93F8019091BC009A7B9093BC0070E0AC
:1008800067707070660F771F582F5295507F562BE8
:1008900090E074EA64E89F5F9B3009F464C0709351
:1008A000BC008091BC0087FFFCCF8091B900887F9D
:1008B000803129F0883399F3883009F054C050937F
:1008C000BB006093BC008091BC0087FFFCCF80918F
:1008D000B900887F8032F9F2883309F38831D1F585
:1008E0004093BB006093BC008091BC0087FFFCCFAD
:1008F0008091B900887F803329F0883381F2883273
:1009000049F503C040E050E01BC040E050E064E81F
:1009100011C080818093BB006093BC008091BC00BB
:1009200087FFFCCF8091B900887F883299F4319697
:100930004F5F5F4FC901841B950B181619064CF3C6
:1009400084E98093BC008DE08A95F1F785E480937B
:10095000BC000BC084E98093BC008DE08A95F1F760
:1009600085E48093BC004FEF5FEFCA011F910F91A8
:1009700008950F931F93F8019091BC009A7B909378
:10098000BC0070E067707070660F771F982F9295AB
:10099000907F962B792F716050E0A4EA64E85F5F46
:1009A0005B3009F48FC0A093BC008091BC0087FF2E
:1009B000FCCF8091B900887F803129F0883399F38A
:1009C000883009F07FC09093BB006093BC00809199
:1009D000BC0087FFFCCF8091B900887F8032F9F29C
:1009E000883309F3883109F064C04093BB006093F9
:1009F000BC008091BC0087FFFCCF8091B900887F4C
:100A0000803309F44AC0883371F2883209F051C04A
:100A1000A093BC008091BC0087FFFCCF8091B900FF
:100A2000887F803131F0883309F4BDCF883009F0F8
:100A300049C07093BB006093BC008091BC0087FFED
:100A4000FCCF8091B900887F803429F0883429F167
:100A5000883379F5A8CF94EC40E050E01AC02130FB
:100A6000310509F494E89093BC008091BC0087FFA5
:100A7000FCCF8091B900887F803521F08835C9F49A
:100A800020E030E08091BB0081934F5F5F4F2150A9
:100A90003040121613061CF302C040E050E084E917
:100AA0008093BC008DE08A95F1F785E48093BC00CB
:100AB0000BC084E98093BC008DE08A95F1F785E452
:100AC0008093BC004FEF5FEFCA011F910F91089513
:100AD0008091B900887F803771F0813728F48036A3
:100AE00051F0883679F507C0803991F0803A21F1CC
:100AF000803841F50DC01092D5011092DA011092A4
:100B0000D6011092D7011092D8011092D9010EC0CF
:100B10008091D5019091BB00E82FF0E0EA52FE4FA2
:100B200090838F5F8093D501843011F085EC01C0F4
:100B300085E88093BC00089584E08093BC0085EC38
:100B40008093BC0008950F931F93DF93CF9300D041
:100B50000F92CDB7DEB78DE060E040E023E030E0FB
:100B60008E010F5F1F4F0E94B904039709F04AC01E
:100B70008981282F2F70205D2093BD0190E0807720
:100B8000907054E0959587955A95E1F7805D809334
:100B9000BC018A81282F2F70205D2093BA0190E03C
:100BA0008077907044E0959587954A95E1F7805D50
:100BB0008093B9019B81892F8F70805D8093B701ED
:100BC000292F30E096FF13C0C9018071907034E086
:100BD000959587953A95E1F7805D8093B60125FD5F
:100BE00002C081E601C080E78093BE010BC0207384
:100BF000307084E0359527958A95E1F7822F805DE6
:100C00008093B6010F900F900F90CF91DF911F91BD
:100C10000F9108950F931F93DF93CF9300D00F92FE
:100C2000CDB7DEB78DE060E044E023E030E08E0138
:100C30000F5F1F4F0E94B904039709F0AFC09B815B
:100C4000892F8F70805D8093C80192959F70905D11
:100C50009093C7019981892F8F70805D8093C50122
:100C600092959F70905D9093C4018A8190E08F71FE
:100C700090708630910509F458C087309105ACF426
:100C80008330910509F43CC0843091053CF48130F7
:100C9000910531F1029709F081C02AC08430910595
:100CA000A1F1059709F07AC038C08930910509F49F
:100CB00054C08A30910544F48730910509F43DC051
:100CC000089709F06BC041C08131910509F455C006
:100CD0008231910509F459C0409709F05FC045C0C1
:100CE00085E48093C0018EE68093C10185E654C0FF
:100CF00086E48093C00185E68093C10182E64CC002
:100D00008DE48093C00181E604C081E48093C0013A
:100D100082E68093C10182E73FC08DE48093C001E9
:100D200081E68093C10189E737C08AE48093C001DE
:100D300085E78093C1018EE62FC08AE48093C001CD
:100D400085E78093C1018CE627C081E48093C001D0
:100D500087E68093C1018FE61FC083E58093C001C1
:100D600085E68093C10180E717C08FE48093C001BE
:100D700083E68093C10184E70FC08EE48093C001B5
:100D80008FE68093C10186E707C084E48093C001A9
:100D900089E68093C10183E68093C2010F900F9092
:100DA0000F90CF91DF911F910F910895EF92FF92D5
:100DB0000F931F93DF93CF93CDB7DEB728970FB66E
:100DC000F894DEBF0FBECDBF8DE060E040E028E0CC
:100DD00030E07E010894E11CF11C87010E94B904F7
:100DE0000897E1F4898187FD02C020E018C01982CC
:100DF0001A8282E58B8386E08C8381E08D838E83EB
:100E000080E18F8318868DE060E040E028E030E0EC
:100E100087010E94370420E0089709F021E0822F23
:100E200028960FB6F894DEBF0FBECDBFCF91DF91ED
:0E0E30001F910F91FF90EF900895F894FFCF5F
:100E3E00504152515545414445524F204544494633
:100E4E004943494F002020202053414E544F444FD8
:100E5E004D494E474F202020200020200043757022
:100E6E006F73204C69627265733A3030302F3030B8
:100E7E003000494E475245534F2053454755524F28
:100E8E0020415245410020202041444D494E4953B6
:100E9E0054524143494F4E0020496E677265736547
:100EAE0020436F6E74726173656E61002020202086
:100EBE00202D2D2D2D2D2D2D2D2D2D004552524F0A
:100ECE00523A204E6F20657320706F7369626C65A5
:100EDE0000636F6D756E69636163696F6E20636F1A
:100EEE006E205254430020203A20203A2020202009
:0A0EFE002020202020202F2020209B
:00000001FF
