:100000000C9438000C9455000C9455000C94550039
:100010000C9455000C9455000C9455000C9455000C
:100020000C9455000C9455000C9455000C945500FC
:100030000C9455000C9455000C9455000C945500EC
:100040000C9455000C9455000C9455000C945500DC
:100050000C9416020C9455000C9466010C945500F7
:100060000C9455000C9455000C94E2010C9455002E
:1000700011241FBECFEFD0E1DEBFCDBF11E0A0E065
:10008000B1E0E4E5F9E002C005900D92A434B107B7
:10009000D9F711E0A4E4B1E001C01D92A835B10781
:1000A000E1F70E9481010C94A8040C940000982FA1
:1000B0001298662311F0119A01C0119882B18F70C5
:1000C00082B982B19295907F892B82B9139A81E08F
:1000D0008A95F1F7139808950F931F93182F062F01
:1000E00082958F700E945700812F8F70602F0E9421
:1000F00057001F910F910895129A91B19F7091B975
:10010000882311F0119A01C01198139A81E08A9501
:10011000F1F780B1139891B1906F91B912988295CF
:100120008F7008950F931F93182F0E947C00082F43
:100130000295007F812F0E947C00802B1F910F91E0
:10014000089580E00E94920087FDFBCF08950F93F1
:100150001F9381B18E6081B981B1806F81B980E4D4
:100160009CE90197F1F783E060E00E94570080E18D
:1001700097E20197F1F783E060E00E94570008EEF4
:1001800013E0C8010197F1F783E060E00E94570097
:10019000C8010197F1F782E060E00E9457000E94D9
:1001A000A10088E260E00E946C000E94A1008CE047
:1001B00060E00E946C000E94A10086E060E00E9466
:1001C0006C000E94A10081E060E00E946C000E942F
:1001D000A10082E060E00E946C000E94A1001F91DB
:1001E0000F91089580E28093C000E1ECF0E010826E
:1001F00086E08093C20083E38093C4001092C50020
:100200008081806480838081806880830895E1ECB0
:10021000F0E08081886080830895E1ECF0E08081E7
:10022000877F80830895E1ECF0E0808180618083A6
:100230000895E1ECF0E080818F7E80830895982F0F
:100240008091C00085FFFCCF9093C60008958091F7
:10025000C00087FFFCCF8091C60008959C01FB0180
:100260000AC090818091C00085FFFCCF31969093A9
:10027000C60021503040121613069CF308952498AE
:1002800084B18A6284B985B18A6385B91CBC8CB596
:100290008CBD8CB58CBD8CB580618CBD8CB58CBD96
:1002A0008CB58CBD8CB582608CBD1DBC8DB58DBDF3
:1002B0008CB580648CBD08958EBD0DB407FEFDCF56
:1002C00008950DB407FEFDCF8EB508951F920F92CD
:1002D0000FB60F9211240F900FBE0F901F9018951C
:1002E0000E94A7008FE08AB91BB80E94F2000E940A
:1002F00007010E94130178940E9445020E94A00306
:10030000089580E991E028EC30E0F9013197F1F7A8
:100310000197D9F70E947001789480E860E00E940C
:100320006C000E94A10028EE33E048EC50E005C0CC
:10033000CA010197F1F72150304021153105C1F76D
:1003400088EE93E0FA013197F1F70197D9F788EE3B
:1003500093E0FA013197F1F70197D9F788EE93E02E
:10036000FA013197F1F70197D9F788EE93E0FA0196
:100370003197F1F70197D9F788EE93E0FA013197B9
:10038000F1F70197D9F788EE93E0FA013197F1F789
:100390000197D9F788EE93E0FA013197F1F70197C9
:1003A000D9F788EE93E0FA013197F1F70197D9F781
:1003B00088EE93E0FA013197F1F70197D9F728EE2B
:1003C00033E0B6CF1F920F920FB60F9211242F93E6
:1003D0003F934F935F936F937F938F939F93AF93CD
:1003E000BF93EF93FF9384E561E00E946C000E944D
:1003F000A10087E561E00E946C000E94A10089E4F1
:1004000061E00E946C000E94A100FF91EF91BF91FA
:10041000AF919F918F917F916F915F914F913F919C
:100420002F910F900FBE0F901F9018951F920F9253
:100430000FB60F9211241F932F933F934F935F9307
:100440006F937F938F939F93AF93BF93EF93FF939C
:100450000E942701182F61E00E946C000E94A100F9
:10046000812F0E941F01FF91EF91BF91AF919F914A
:100470008F917F916F915F914F913F912F911F913C
:100480000F900FBE0F901F901895E8EBF0E01082D0
:100490001092BC0088EF8093B9001092BD0081E2F9
:1004A000808382E08093BA000895813039F08130F2
:1004B00018F0823061F406C084EA01C084E88093B9
:1004C000BC0005C084E98093BC0080E00895809161
:1004D000BC0087FFFCCF8091B900887F08950F93FF
:1004E0001F93F8019091BC009A7B9093BC0070E040
:1004F00067707070660F771F582F5295507F562B7C
:1005000090E074EA64E89F5F953609F464C07093E4
:10051000BC008091BC0087FFFCCF8091B900887F30
:10052000803129F0883399F3883009F054C0509312
:10053000BB006093BC008091BC0087FFFCCF809122
:10054000B900887F8032F9F2883309F38831D1F518
:100550004093BB006093BC008091BC0087FFFCCF40
:100560008091B900887F803329F0883381F2883206
:1005700049F503C040E050E01BC040E050E064E8B3
:1005800011C080818093BB006093BC008091BC004F
:1005900087FFFCCF8091B900887F883299F431962B
:1005A0004F5F5F4FC901841B950B181619064CF35A
:1005B00084E98093BC008DE08A95F1F785E480930F
:1005C000BC000BC084E98093BC008DE08A95F1F7F4
:1005D00085E48093BC004FEF5FEFCA011F910F913C
:1005E00008950F931F93F8019091BC009A7B90930C
:1005F000BC0070E067707070660F771F982F92953F
:10060000907F962B792F716050E0A4EA64E85F5FD9
:10061000553609F48FC0A093BC008091BC0087FFC1
:10062000FCCF8091B900887F803129F0883399F31D
:10063000883009F07FC09093BB006093BC0080912C
:10064000BC0087FFFCCF8091B900887F8032F9F22F
:10065000883309F3883109F064C04093BB0060938C
:10066000BC008091BC0087FFFCCF8091B900887FDF
:10067000803309F44AC0883371F2883209F051C0DE
:10068000A093BC008091BC0087FFFCCF8091B90093
:10069000887F803131F0883309F4BDCF883009F08C
:1006A00049C07093BB006093BC008091BC0087FF81
:1006B000FCCF8091B900887F803429F0883429F1FB
:1006C000883379F5A8CF94EC40E050E01AC021308F
:1006D000310509F494E89093BC008091BC0087FF39
:1006E000FCCF8091B900887F803521F08835C9F42E
:1006F00020E030E08091BB0081934F5F5F4F21503D
:100700003040121613061CF302C040E050E084E9AA
:100710008093BC008DE08A95F1F785E48093BC005E
:100720000BC084E98093BC008DE08A95F1F785E4E5
:100730008093BC004FEF5FEFCA011F910F910895A6
:10074000CF92DF92EF92FF920F931F93DF93CF939D
:10075000CDB7DEB760970FB6F894DEBF0FBECDBF42
:1007600081E190E060E071E00E942E018DE00E9446
:100770001F018DE060E040E028E030E08E010F5F77
:100780001F4F0E94F1028F5F9F4F29F487E090E096
:1007900062E171E004C087E090E06AE171E00E94EC
:1007A0002E018DE00E941F0180E190E062E271E085
:1007B0000E942E018DE00E941F01698180E090E07F
:1007C00070E00E942E018DE00E941F016A8180E08E
:1007D00090E070E00E942E018DE00E941F016B816D
:1007E00080E090E070E00E942E018DE00E941F01E9
:1007F0006C8180E090E070E00E942E018DE00E940C
:100800001F016D8180E090E070E00E942E018DE07C
:100810000E941F016E8180E090E070E00E942E0136
:100820008DE00E941F016F8180E090E070E00E94E7
:100830002E018DE00E941F01688580E090E070E04D
:100840000E942E018DE00E941F018FE090E063E383
:1008500071E00E942E018DE00E941F0119861A8608
:100860001B861C861D861E861F86188A8DE060E00A
:1008700040E021E030E08E01075F1F4F0E946F02D1
:1008800028EE33E088ECE82EF12C6E010894C11CB0
:10089000D11C05C0C7010197F1F721503040211547
:1008A0003105C1F788EE93E0F7013197F1F7019731
:1008B000D9F788EE93E0F7013197F1F70197D9F76F
:1008C00088EE93E0F7013197F1F70197D9F788EEB9
:1008D00093E0F7013197F1F70197D9F788EE93E0AC
:1008E000F7013197F1F70197D9F788EE93E0F70117
:1008F0003197F1F70197D9F788EE93E0F701319737
:10090000F1F70197D9F788EE93E0F7013197F1F706
:100910000197D9F788EE93E0F7013197F1F7019746
:10092000D9F78DE060E040E028E030E086010E94E9
:10093000F1028A810E941F018AE30E941F018981BE
:100940000E941F018DE00E941F0128EE33E0A2CF1C
:04095000F894FFCF49
:1009540020202D20436F6D69656E7A61206C65657A
:1009640072004552524F522121004C656572204F4E
:100974004B004461746F732064656C2052656C6F26
:100984006A3A0046696E204461746F732052656C44
:040994006F6A000086
:00000001FF
