:100000000C9434000C9446000C9446000C9446006A
:100010000C9446000C9446000C9446000C94460048
:100020000C9446000C9446000C9446000C94460038
:100030000C9446000C9446000C9446000C94460028
:100040000C9446000C9446000C94BC000C944600A2
:100050000C9446000C9446000C9446000C94460008
:100060000C9446000C94460011241FBECFEFD4E040
:10007000DEBFCDBF11E0A0E0B1E001C01D92A13014
:10008000B107E1F70E9464090C94BE090C940000CA
:1000900044984398429880FD439A60FD429A449A5E
:1000A00044984398429881FD439A61FD429A449A4C
:1000B00044984398429882FD439A62FD429A449A3A
:1000C00044984398429883FD439A63FD429A449A28
:1000D00044984398429884FD439A64FD429A449A16
:1000E00044984398429885FD439A65FD429A449A04
:1000F00044984398429886FD439A66FD429A449AF2
:1001000044984398429887FD439A67FD429A449ADF
:1001100008954198409880FD409A419A41984098AE
:1001200081FD409A419A4198409882FD409A419AB7
:100130004198409883FD409A419A4198409884FDA7
:10014000409A419A4198409885FD409A419A419839
:10015000409886FD409A419A4198409887FD409A80
:10016000419A08950E947F090E94A3093C9A399AF6
:100170003B9A3A9A389A08951F920F920FB60F92AF
:1001800011242F933F934F935F936F937F938F939C
:100190009F93AF93BF93EF93FF930E94B709809112
:1001A0000001882391F541984098419A41984098E0
:1001B000409A419A41984098409A419A4198409873
:1001C000409A419A41984098419A41984098409A63
:1001D000419A41984098409A419A41984098409A53
:1001E000419A81E080930001FF91EF91BF91AF911F
:1001F0009F918F917F916F915F914F913F912F913F
:100200000F900FBE0F901F901895813019F010922B
:100210000001EACF41984098419A41984098409A0D
:10022000419A41984098419A41984098419A419802
:100230004098419A41984098419A41984098419AF3
:1002400041984098409A419A10920001CDCF60E0C9
:1002500070E048EC50E020E030E0CA010197F1F78F
:100260002F5F3F4F83E0283E3807B9F720E030E0AA
:10027000CA010197F1F72F5F3F4F83E0283E38070F
:10028000B9F720E030E0CA010197F1F72F5F3F4F47
:1002900083E0283E3807B9F720E030E0CA01019733
:1002A000F1F72F5F3F4F83E0283E3807B9F720E092
:1002B00030E0CA010197F1F72F5F3F4F83E0283EFE
:1002C0003807B9F720E030E0CA010197F1F72F5F56
:1002D0003F4F83E0283E3807B9F720E030E0CA01FD
:1002E0000197F1F72F5F3F4F83E0283E3807B9F7BA
:1002F00020E030E0CA010197F1F72F5F3F4F83E024
:10030000283E3807B9F720E030E0CA010197F1F73D
:100310002F5F3F4F83E0283E3807B9F720E030E0F9
:10032000CA010197F1F72F5F3F4F83E0283E38075E
:10033000B9F7CB0101966430710509F408C4653042
:1003400071059CF46130710509F42BC662307105AA
:100350000CF4D6C66230710509F470C563307105BE
:1003600009F4B0C460E070E076CF6730710509F43D
:100370003EC3683071050CF0D5C06530710509F4D5
:1003800083C26630710571F741984098419A41984F
:100390004098409A419A41984098409A419A419891
:1003A0004098409A419A41984098409A419A419881
:1003B0004098409A419A41984098409A419A419871
:1003C0004098419A41984098419A41984098409A63
:1003D000419A41984098409A419A41984098409A51
:1003E000419A41984098409A419A41984098409A41
:1003F000419A41984098409A419A41984098419A30
:1004000041984098419A41984098409A419A419821
:100410004098409A419A41984098409A419A419810
:100420004098409A419A41984098409A419A419800
:100430004098409A419A41984098419A44984398EC
:100440004298449A449843984298429A449A4498CD
:1004500043984298429A449A449843984298429AC0
:10046000449A449843984298429A449A44984398AC
:100470004298429A449A449843984298429A449A9D
:10048000449843984298449A449843984298449A8E
:10049000449843984298429A449A44984398429880
:1004A000429A449A449843984298429A449A44986B
:1004B00043984298429A449A449843984298429A60
:1004C000449A449843984298429A449A449843984C
:1004D0004298449A449843984298449A449843983E
:1004E0004298429A449A449843984298429A449A2D
:1004F000449843984298429A449A44984398429820
:10050000429A449A449843984298429A449A44980A
:1005100043984298429A449A449843984298449AFD
:10052000BC0199CE6830710509F4D4C069307105F9
:1005300009F018CF41984098419A41984098409AC4
:10054000419A41984098409A419A41984098419ADE
:1005500041984098409A419A41984098409A419ACF
:1005600041984098409A419A41984098409A419ABF
:1005700041984098419A41984098409A419A4198B0
:100580004098409A419A41984098419A41984098A1
:10059000409A419A41984098409A419A419840988F
:1005A000409A419A41984098409A419A419840987F
:1005B000419A41984098409A419A41984098409A6F
:1005C000419A41984098419A41984098409A419A5E
:1005D00041984098409A419A41984098409A419A4F
:1005E00041984098409A419A449843984298449A36
:1005F000449843984298429A449A4498439842981F
:10060000429A449A449843984298449A449843980A
:100610004298429A449A449843984298429A449AFB
:10062000449843984298429A449A449843984298EE
:10063000429A449A449843984298449A44984398DA
:100640004298429A449A449843984298429A449ACB
:10065000449843984298449A449843984298429ABE
:10066000449A449843984298429A449A44984398AA
:100670004298429A449A449843984298429A449A9B
:10068000449843984298449A449843984298429A8E
:10069000449A449843984298429A449A449843987A
:1006A0004298449A449843984298429A449A44986B
:1006B00043984298429A449A449843984298429A5E
:1006C000449A449843984298429A449A80E090E031
:1006D000BC01C1CD41984098409A419A41984098B8
:1006E000409A419A41984098409A419A419840983E
:1006F000409A419A41984098409A419A419840982E
:10070000409A419A41984098409A419A419840981D
:10071000409A419A41984098409A419A419840980D
:10072000409A419A41984098409A419A41984098FD
:10073000409A419A41984098409A419A41984098ED
:10074000409A419A41984098409A419A41984098DD
:10075000409A419A41984098409A419A41984098CD
:10076000409A419A41984098409A419A41984098BD
:10077000409A419A41984098409A419A41984098AD
:10078000409A419A41984098409A419A419840989D
:10079000409A419A449843984298429A449A44987D
:1007A00043984298429A449A449843984298429A6D
:1007B000449A449843984298429A449A4498439859
:1007C0004298429A449A449843984298429A449A4A
:1007D000449843984298429A449A4498439842983D
:1007E000429A449A449843984298429A449A449828
:1007F00043984298429A449A449843984298429A1D
:10080000449A449843984298429A449A4498439808
:100810004298429A449A449843984298429A449AF9
:10082000449843984298429A449A449843984298EC
:10083000429A449A449843984298429A449A4498D7
:1008400043984298429A449A449843984298429ACC
:10085000449A449843984298429A449A44984398B8
:100860004298429A449A449843984298429A449AA9
:10087000449843984298429A449A4498439842989C
:10088000429A449ABC01E7CC41984098419A4198D9
:100890004098409A419A41984098409A419A41988C
:1008A0004098419A41984098409A419A419840987E
:1008B000409A419A41984098409A419A419840986C
:1008C000419A41984098419A41984098409A419A5B
:1008D00041984098409A419A41984098419A41984D
:1008E0004098409A419A41984098409A419A41983C
:1008F0004098409A419A41984098419A419840982E
:10090000419A41984098409A419A41984098409A1B
:10091000419A41984098419A41984098409A419A0A
:1009200041984098409A419A41984098409A419AFB
:1009300041984098419A449843984298449A4498E0
:1009400043984298429A449A449843984298429ACB
:10095000449A449843984298449A449843984298B9
:10096000429A449A449843984298429A449A4498A6
:1009700043984298429A449A449843984298449A99
:10098000449843984298449A449843984298429A8B
:10099000449A449843984298429A449A4498439877
:1009A0004298449A449843984298429A449A449868
:1009B00043984298429A449A449843984298429A5B
:1009C000449A449843984298449A44984398429849
:1009D000449A449843984298429A449A4498439837
:1009E0004298429A449A44984398429885CD4198B7
:1009F0004098419A41984098409A419A419840982D
:100A0000419A41984098419A41984098419A41981A
:100A10004098419A41984098409A419A419840980C
:100A2000409A419A41984098419A41984098409AFA
:100A3000419A41984098419A41984098419A4198EA
:100A40004098419A41984098419A41984098409ADC
:100A5000419A41984098409A419A41984098419AC9
:100A600041984098409A419A41984098419A4198BB
:100A70004098419A41984098419A41984098419AAB
:100A800041984098409A419A41984098409A419A9A
:100A9000449843984298449A449843984298429A7A
:100AA000449A449843984298449A44984398429868
:100AB000449A449843984298449A44984398429858
:100AC000449A449843984298429A449A4498439846
:100AD0004298429A449A449843984298449A449837
:100AE00043984298429A449A449843984298449A28
:100AF000449843984298449A449843984298449A18
:100B0000449843984298449A449843984298429A09
:100B1000449A449843984298429A449A44984398F5
:100B20004298449A449843984298429A449A4498E6
:100B300043984298449A449843984298449A4498D7
:100B400043984298449A44984398429890CE41984A
:100B50004098419A41984098409A419A41984098CB
:100B6000419A41984098419A41984098409A419AB8
:100B700041984098409A419A41984098419A4198AA
:100B80004098409A419A41984098419A419840989B
:100B9000409A419A41984098419A41984098419A88
:100BA00041984098409A419A41984098409A419A79
:100BB00041984098419A41984098409A419A41986A
:100BC0004098419A41984098409A419A419840985B
:100BD000419A41984098419A41984098409A419A48
:100BE00041984098409A419A41984098419A41983A
:100BF0004098409A419A449843984298449A44981D
:100C000043984298429A449A449843984298449A06
:100C1000449843984298449A449843984298429AF8
:100C2000449A449843984298429A449A44984398E4
:100C30004298449A449843984298429A449A4498D5
:100C400043984298449A449843984298429A449AC6
:100C5000449843984298449A449843984298449AB6
:100C6000449843984298429A449A449843984298A8
:100C7000429A449A449843984298449A4498439894
:100C80004298429A449A449843984298449A449885
:100C900043984298429A449A449843984298449A76
:100CA000449843984298449A449843984298429A68
:100CB000449A449843984298429A449A4498439854
:100CC0004298DACD41984098419A41984098409A8C
:100CD000419A41984098409A419A41984098419A47
:100CE00041984098409A419A41984098419A419839
:100CF0004098409A419A41984098409A419A419828
:100D00004098419A41984098409A419A4198409819
:100D1000409A419A41984098419A41984098409A07
:100D2000419A41984098419A41984098409A419AF6
:100D300041984098409A419A41984098419A4198E8
:100D40004098409A419A41984098409A419A4198D7
:100D50004098419A41984098409A419A41984098C9
:100D6000419A41984098409A419A41984098409AB7
:100D7000419A449843984298449A44984398429898
:100D8000429A449A449843984298429A449A449882
:100D900043984298449A449843984298429A449A75
:100DA000449843984298449A449843984298429A67
:100DB000449A449843984298429A449A4498439853
:100DC0004298449A449843984298429A449A449844
:100DD00043984298429A449A449843984298449A35
:100DE000449843984298429A449A44984398429827
:100DF000449A449843984298429A449A4498439813
:100E00004298429A449A449843984298449A449803
:100E100043984298429A449A449843984298429AF6
:100E2000449A449843984298449A449843984298E4
:100E3000429A449A44984398429819CD41984098D0
:100E4000419A41984098419A41984098409A419AD5
:100E500041984098409A419A41984098409A419AC6
:100E600041984098419A41984098409A419A4198B7
:100E70004098409A419A41984098419A41984098A8
:100E8000419A41984098409A419A41984098409A96
:100E9000419A41984098409A419A41984098419A85
:100EA00041984098409A419A41984098409A419A76
:100EB00041984098419A41984098419A4198409869
:100EC000409A419A41984098409A419A4198409856
:100ED000409A419A41984098419A41984098409A46
:100EE000419A41984098409A419A44984398429830
:100EF000449A449843984298449A44984398429814
:100F0000429A449A449843984298429A449A449800
:100F100043984298429A449A449843984298449AF3
:100F2000449843984298429A449A449843984298E5
:100F3000429A449A449843984298449A44984398D1
:100F40004298449A449843984298429A449A4498C2
:100F500043984298429A449A449843984298429AB5
:100F6000449A449843984298449A449843984298A3
:100F7000429A449A449843984298429A449A449890
:100F800043984298449A449843984298449A449883
:100F900043984298429A449A449843984298429A75
:100FA00043CF41984098419A41984098409A419A3D
:100FB00041984098419A41984098419A4198409868
:100FC000419A41984098419A41984098419A419855
:100FD0004098409A419A41984098419A4198409847
:100FE000409A419A41984098419A41984098419A34
:100FF00041984098419A41984098419A4198409828
:10100000419A41984098409A419A41984098419A13
:1010100041984098409A419A41984098419A419805
:101020004098419A41984098419A41984098419AF5
:1010300041984098419A41984098409A419A4498E2
:1010400043984298449A449843984298429A449AC2
:10105000449843984298449A449843984298449AB2
:10106000449843984298449A449843984298449AA2
:10107000449843984298449A449843984298429A94
:10108000449A449843984298449A44984398429882
:10109000429A449A449843984298449A4498439870
:1010A0004298449A449843984298449A4498439862
:1010B0004298449A449843984298449A4498439852
:1010C0004298429A449A449843984298449A449841
:1010D00043984298429A449A449843984298449A32
:1010E000449843984298449A449843984298449A22
:1010F000449843984298449A449843984298BCCB69
:10110000672B09F02FC941984098419A419840981F
:10111000409A419A41984098409A419A4198409803
:10112000409A419A41984098419A41984098409AF3
:10113000419A41984098409A419A41984098409AE3
:10114000419A41984098419A41984098409A419AD2
:1011500041984098409A419A41984098409A419AC3
:1011600041984098419A41984098409A419A4198B4
:101170004098409A419A41984098409A419A4198A3
:101180004098419A41984098409A419A4198409895
:10119000409A419A41984098409A419A4198409883
:1011A000419A41984098409A419A41984098409A73
:1011B000419A41984098409A419A4498439842985D
:1011C000449A449843984298439A429A449A44983D
:1011D00043984298439A429A449A44984398429832
:1011E000439A429A449A449843984298449A44981D
:1011F00043984298439A429A449A44984398429812
:10120000439A429A449A449843984298439A429AFD
:10121000449A449843984298449A449843984298F0
:10122000439A429A449A449843984298439A429ADD
:10123000449A449843984298439A429A449A4498CC
:1012400043984298449A449843984298439A429AC1
:10125000449A449843984298439A429A449A4498AC
:1012600043984298439A429A449A449843984298A1
:10127000449A449843984298439A429A449A44988C
:1012800043984298439A429A449A44984398429881
:10129000439A429A449A449843984298449A44986C
:1012A00043984298439A429A449A44984398429861
:1012B000439A429A449A449843984298439A429A4D
:1012C000449ABC010C942B0120E030E048EC50E043
:1012D000CA010197F1F72F5F3F4F81E020393807AE
:1012E000B9F7109200010E947F090E94A3093C9A5D
:1012F000399A3B9A3A9A389A0E942701FDCF80E2A8
:101300008093C000E1ECF0E01082A2ECB0E086E057
:101310008C938FEC8093C4001092C50080818083F1
:101320008081806880838C9180628C930895E1EC49
:10133000F0E08081886080830895E1ECF0E08081B6
:10134000877F80830895E1ECF0E080818061808375
:101350000895E1ECF0E080818F7E80830895982FDE
:101360008091C00085FFFCCF9093C60008958091C6
:10137000C00087FFFCCF8091C6000895F894FFCF8E
:00000001FF
