:100000000C9434000C9446000C9446000C9446006A
:100010000C9446000C9446000C9446000C94460048
:100020000C9446000C9446000C9446000C94460038
:100030000C9446000C9446000C9446000C94460028
:100040000C9446000C9446000C9446000C94460018
:100050000C9446000C9446000C9446000C94460008
:100060000C9446000C94460011241FBECFEFD4E040
:10007000DEBFCDBF11E0A0E0B1E001C01D92A6300F
:10008000B107E1F70E944E000C94A8020C94000006
:10009000F8940E94A1001BB81AB80895AF92BF92BD
:1000A000CF92DF92EF92FF920F931F93DF93CF9344
:1000B00000D000D0CDB7DEB780E991E028EC30E089
:1000C000F9013197F1F70197D9F70E944800198299
:1000D0001A828FEF8B838C8320E931E093E0A92E85
:1000E000B12CAC0EBD1E6E010894C11CD11C88EC55
:1000F000E82EF12C09C0C7010197F1F721503040DB
:1001000003C020E931E0F7CF21153105A1F7489B65
:100110000BC080E061E040E022E030E086010E9418
:10012000CB004899FECFEDCF499BEBCF80E061E05B
:1001300040E022E030E085010E94CB004999FECFEB
:10014000E0CFE8EBF0E010821092BC0088EF8093E3
:10015000B9001092BD0081E2808384E08093BA00F0
:100160000895813039F0813018F0823061F406C092
:1001700084EA01C084E88093BC0005C084E98093D0
:10018000BC0080E008958091BC0087FFFCCF809187
:10019000B900887F08950F931F93F8019091BC00D8
:1001A0009A7B9093BC0070E067707070660F771F49
:1001B000582F5295507F562B90E074EA64E89F5F69
:1001C0009B3009F464C07093BC008091BC0087FF31
:1001D000FCCF8091B900887F803129F0883399F372
:1001E000883009F054C05093BB006093BC008091EC
:1001F000BC0087FFFCCF8091B900887F8032F9F284
:10020000883309F38831D1F54093BB006093BC007B
:100210008091BC0087FFFCCF8091B900887F80333C
:1002200029F0883381F2883249F503C040E050E07C
:100230001BC040E050E064E811C080818093BB00A7
:100240006093BC008091BC0087FFFCCF8091B90017
:10025000887F883299F431964F5F5F4FC901841BC4
:10026000950B181619064CF384E98093BC008DE0B9
:100270008A95F1F785E48093BC000BC084E98093F4
:10028000BC008DE08A95F1F785E48093BC004FEFC8
:100290005FEFCA011F910F9108950F931F93F8010B
:1002A0009091BC009A7B9093BC0070E06770707076
:1002B000660F771F982F9295907F962B792F7160FC
:1002C00050E0A4EA64E85F5F5B3009F48FC0A0935C
:1002D000BC008091BC0087FFFCCF8091B900887F73
:1002E000803129F0883399F3883009F07FC09093EA
:1002F000BB006093BC008091BC0087FFFCCF809165
:10030000B900887F8032F9F2883309F3883109F027
:1003100064C04093BB006093BC008091BC0087FF29
:10032000FCCF8091B900887F803309F44AC08833BC
:1003300071F2883209F051C0A093BC008091BC00DA
:1003400087FFFCCF8091B900887F803131F08833FE
:1003500009F4BDCF883009F049C07093BB006093A9
:10036000BC008091BC0087FFFCCF8091B900887FE2
:10037000803429F0883429F1883379F5A8CF94ECBA
:1003800040E050E01AC02130310509F494E8909320
:10039000BC008091BC0087FFFCCF8091B900887FB2
:1003A000803521F08835C9F420E030E08091BB0031
:1003B00081934F5F5F4F21503040121613061CF39C
:1003C00002C040E050E084E98093BC008DE08A9553
:1003D000F1F785E48093BC000BC084E98093BC00F6
:1003E0008DE08A95F1F785E48093BC004FEF5FEFD5
:1003F000CA011F910F9108958091B900887F8037BD
:1004000071F0813728F4803651F0883661F507C0E5
:10041000803991F0803A21F1803829F50DC0109291
:100420000001109205011092010110920201109238
:100430000301109204010EC0809100019091BB0055
:10044000E82FF0E0EF5FFE4F90838F5F8093000115
:10045000843011F085EC01C085E88093BC000895DC
:1004600084E08093BC000895249884B18A6284B9A2
:1004700085B18A6385B91CBC8CB58CBD8CB58CBD2F
:100480008CB580618CBD8CB58CBD8CB58CBD8CB5AC
:1004900082608CBD1DBC8DB58DBD8CB580648CBD5E
:1004A00008958EBD0DB407FEFDCF08950DB407FE6F
:1004B000FDCF8EB5089580E28093C000E1ECF0E0BE
:1004C000108286E08093C20083E38093C400109280
:1004D000C5008081806480838081806880830895E6
:1004E000E1ECF0E08081886080830895E1ECF0E049
:1004F0008081877F80830895E1ECF0E080818061D6
:1005000080830895E1ECF0E080818F7E8083089500
:10051000982F8091C00085FFFCCF9093C60008956E
:100520008091C00087FFFCCF8091C60008959C0198
:10053000FB010AC090818091C00085FFFCCF3196FD
:100540009093C60021503040121613069CF3089574
:04055000F894FFCF4D
:00000001FF
