:100000000C9434000C943E000C943E000C943E0082
:100010000C943E000C943E000C943E000C943E0068
:100020000C943E000C943E000C943E000C943E0058
:100030000C943E000C943E000C943E000C943E0048
:100040000C943E000C943E000C943E000C943E0038
:100050000C943E000C943E000C943E000C943E0028
:100060000C943E000C943E0011241FBECFEFD4E050
:10007000DEBFCDBF0E944C000C944E010C940000DA
:100080008FEF8AB98BB98AEA8BB90E94E30085E5C4
:100090008BB90E94AB00089580E991E028EC30E034
:1000A000F9013197F1F70197D9F70E944000FFCF8E
:1000B000CF92DF92EF92FF920F931F937A018B0101
:1000C0001BB82A9838ECC32ED12CC6010197F1F742
:1000D00081E08BB980E40E940201812F9927AA2731
:1000E000BB270E940201C801AA27BB270E94020168
:1000F000BB27A12F902F8F2D0E9402018E2D0E94D1
:10010000020185E90E94020182E08BB9C6010197D4
:10011000F1F70E940801082F83E08BB910E004C0BA
:100120001F5F0E940801082F1F3610F40F3FC1F314
:100130000E94080184EF8BB92A9A8FEF0E94020176
:100140008FEF0E940201802F1F910F91FF90EF907F
:10015000DF90CF9008950F931F932A9A2A9888ECE6
:1001600090E00197F1F700E08FEF0E9402010F5F2E
:100170000A30D1F708EC10E0C8010197F1F72A9A8C
:10018000C8010197F1F78FEF0E9402018FEF0E94E3
:100190000201C8010197F1F78FEF8BB900E081E010
:1001A00040E050E060E070E00E9458000F5F0132D4
:1001B00019F48BB981E004C0813089F78BB980E0F4
:1001C0001F910F910895249884B18C6284B985B1F0
:1001D0008C6385B91CBC8CB58CBD8CB58CBD8CB5C5
:1001E00080618CBD8CB58CBD8CB58CBD8CB58260AE
:1001F0008CBD1DBC8DB58DBD8CB580648CBD82E57C
:100200008CBD08958EBD0DB407FEFDCF8EB508954B
:100210008FEF8EBD0DB407FEFDCF8EB5089580E241
:100220008093C000E1ECF0E01082A2ECB0E086E048
:100230008C938FEC8093C4001092C5008081806401
:100240008083808180838C9180628C930895E1EC1F
:10025000F0E08081886080830895E1ECF0E08081A7
:10026000877F80830895E1ECF0E080818061808366
:100270000895E1ECF0E080818F7E80830895982FCF
:100280008091C00085FFFCCF9093C60008958091B7
:10029000C00087FFFCCF8091C6000895F894FFCF7F
:00000001FF
