:100000002DC047C046C045C044C043C042C041C0E7
:1000100040C03FC03EC03DC03CC03BC03AC039C0FC
:1000200038C037C009C235C035C033C032C031C056
:1000300030C02FC07CC07DC07EC07FC080C081C06A
:1000400082C083C084C071C0C6C1B2C19EC18AC112
:1000500076C162C14EC13AC126C110C111241FBE72
:10006000CFEFD4E0DEBFCDBF11E0A0E0B1E0E4E629
:10007000F5E002C005900D92A430B107D9F711E068
:10008000A4E0B1E001C01D92A131B107E1F7C5D1F3
:1000900067C2B6CF1F920F920FB60F9211240F9026
:1000A0000FBE0F901F901895482F50E070E020E091
:1000B00030E0449843984298CA01022E02C09595B8
:1000C00087950A94E2F780FD439ACB01022E02C085
:1000D000959587950A94E2F780FD429A449A2F5F9E
:1000E0003F4F2830310529F70895482F50E020E090
:1000F00030E041984098CA01022E02C0959587953C
:100100000A94E2F780FD409A419A2F5F3F4F2830D2
:10011000310579F70895E82FF0E0EA30F10510F0A5
:1001200080E00895E65EFF4F099486EF08958EEE15
:10013000089582E808958CED089586ED089582EB88
:10014000089586E708958EE7089582EC08958FEF6D
:1001500008951F9380910A01DEDFC7DF80910B01B4
:10016000DADFC3DF80910C01D6DFBFDF80910D01A4
:10017000D2DFBBDF80910401CEDF182F8091070111
:10018000CADF682F812F90DF80910501C4DF182F0F
:1001900080910801C0DF682F812F86DF80910601E2
:1001A000BADF182F80910901B6DF682F812F7CDF1D
:1001B0001F9108950F931F93CF93DF93E0E0F0E03A
:1001C000C8ECD0E028EE33E0CE010197F1F72150E2
:1001D0003040D1F728EE33E0CE010197F1F72150FE
:1001E0003040D1F728EE33E0CE010197F1F72150EE
:1001F0003040D1F728EE33E0CE010197F1F72150DE
:100200003040D1F728EE33E0CE010197F1F72150CD
:100210003040D1F728EE33E0CE010197F1F72150BD
:100220003040D1F728EE33E0CE010197F1F72150AD
:100230003040D1F728EE33E0CE010197F1F721509D
:100240003040D1F728EE33E0CE010197F1F721508D
:100250003040D1F728EE33E0CE010197F1F721507D
:100260003040D1F78F010F5F1F4FEA30F10518F0D2
:10027000E0E0F0E0A7CFEC5DFF4F099486EF35DFBB
:1002800086EF33DF86EF31DF86EF2FDF86EF66EF15
:100290000BDF86EF66EF08DF86EF66EF05DF00E035
:1002A00010E0F8018FCF8FEF20DF8FEF1EDF8FEF91
:1002B0001CDF8FEF1ADF8FEF6FEFF6DE8FEF6FEF40
:1002C000F3DE8FEF6FEFF0DEF8017CCF82EC0DDF15
:1002D00082EC0BDF82EC09DF82EC07DF82EC62EC60
:1002E000E3DE82EC62ECE0DE82EC62ECDDDEF80163
:1002F00069CF8EE7FADE8EE7F8DE8EE7F6DE8EE770
:10030000F4DE8EE76EE7D0DE8EE76EE7CDDE8EE7B9
:100310006EE7CADEF80156CF86E7E7DE86E7E5DE60
:1003200086E7E3DE86E7E1DE86E766E7BDDE86E7B1
:1003300066E7BADE86E766E7B7DEF80143CF82EB11
:10034000D4DE82EBD2DE82EBD0DE82EBCEDE82EB3D
:1003500062EBAADE82EB62EBA7DE82EB62EBA4DE4D
:10036000F80130CF86EDC1DE86EDBFDE86EDBDDE65
:1003700086EDBBDE86ED66ED97DE86ED66ED94DEFE
:1003800086ED66ED91DEF8011DCF8CEDAEDE8CEDD5
:10039000ACDE8CEDAADE8CEDA8DE8CED6CED84DE9F
:1003A0008CED6CED81DE8CED6CED7EDEF8010ACF1C
:1003B00082E89BDE82E899DE82E897DE82E895DEBD
:1003C00082E862E871DE82E862E86EDE82E862E876
:1003D0006BDEF801F7CE8EEE88DE8EEE86DE8EEED8
:1003E00084DE8EEE82DE8EEE6EEE5EDE8EEE6EEEE3
:1003F0005BDE8EEE6EEE58DEF801E4CE63D083D085
:1004000076D081E48CD082E68AD083E688D03C9A8C
:10041000399A3B9A3A9A389A089520E931E048ECA3
:1004200050E0CA010197F1F721503040D1F7109206
:100430001001E4DF7894FFCF1F920F920FB60F9256
:1004400011242F933F934F935F936F937F938F93D9
:100450009F93AF93BF93EF93FF9369D0282F81347D
:1004600019F180910E0190910F018A3091055CF491
:10047000FC01EC5FFE4F2083019690930F01809367
:100480000E010A97B1F0FF91EF91BF91AF919F914B
:100490008F917F916F915F914F913F912F910F902D
:1004A0000FBE0F901F90189510920F0110920E0121
:1004B000EACF4FDE82E090E060E071E03FD08DE077
:1004C0002ED0E1CF80E28093C000E1ECF0E010821A
:1004D00086E08093C20083E38093C4001092C5003D
:1004E0008081806480838081806880830895E1ECCE
:1004F000F0E08081886080830895E1ECF0E0808105
:10050000877F80830895E1ECF0E0808180618083C3
:100510000895E1ECF0E080818F7E80830895982F2C
:100520008091C00085FFFCCF9093C6000895809114
:10053000C00087FFFCCF8091C60008959C01FB019D
:100540001816190664F491918091C00085FFFCCFC4
:100550009093C6002150304012161306A4F308955C
:04056000F894FFCF3D
:040564004F6B0000D9
:00000001FF
